:020000040800F2
:100000000050002075040008B4040008B40400087F
:10001000B4040008B4040008B4040008F0B516469F
:1000200003780C4FB41AA14201DC0370F0BD16F83E
:10003000015B85EA030424093C5D84EA0313DCB216
:1000400085EA141505F00F057B5D83EA0413DBB226
:10005000E8E700BFE00E00080B4B70B51D686C6947
:1000600044F040046C6101255C68A56000248C426A
:1000700003D15B681B68136070BD50F824605D6835
:1000800001342E60F3E700BF040000202DE9F347A0
:10009000624E05468946904600243746DFF89CA10B
:1000A0004C4533786CDB052B6CD0002002B0BDE8EA
:1000B000F0873BB92B5D022B0FD1594A13700123F6
:1000C00033700AE0012B18D12B5D554A052B537074
:1000D00001D0802B03D105233B700134E0E7012BD5
:1000E00007D80223337000234E4A13604E4A136030
:1000F000F3E7022BF1D00023EEE7022B22D14A4A8C
:100100004749136815F804C0C81880F802C0285D74
:1001100003F1010CDFF80CE1C3F10303DB0000FA8B
:1001200003F3DEF80000BCF1030F40EA0300C2F85D
:1001300000C0CEF80000D0D94B78002BCBD10321E2
:100140003170D4E7032B0BD1374B19684A1C1A6066
:10015000334B285D0B44072A9871BEDD0423AFE7BB
:10016000042BC8D1FF2302A800F8013D52460D21FF
:10017000FFF754FF2A5D9DF807309A42BBD1AAE7EA
:10018000052B96D1264C6378052B06D10820274BEA
:10019000C8F8003000233B7088E7802B05D1244B42
:1001A000244A9B68DA600020F4E7B3B91D4D00F0E3
:1001B00083F92868C0F3090252B1082229681E4851
:1001C00000F0B0F90028EED1C8F800400620E1E7C1
:1001D00000F080F90028F0D0E5E7012BE3D1114BC6
:1001E0001D680023D94303F00402585D01F00301A8
:1001F000224401330A44082B9071F3D1FF2302A853
:1002000000F8013D0D4A0D21FFF708FF9DF807306A
:100210000F20A373C8F80040BCE700BF28000020EF
:10022000300000202C00002040000020F00E0008CC
:10023000040000200400FA053600002031000020F0
:10024000082213B5194C23689A614FF000531A68BD
:10025000174B9A4203D0E3689B685A0705D54FF0C5
:10026000005300221A6002B010BD2069416AB1F546
:10027000704FF8D28B07F6D101AA8908FFF7ECFE80
:10028000019A2169D2434B6A019203F1006303F59D
:1002900080531B689A42E6D10B6883F30888054BAC
:1002A000A26893605B689847DDE700BF0400002008
:1002B000EFBEADDE0010000812210C4B5A69116030
:1002C0004FF4D0011A6851601A68094911601A6820
:1002D00012689201FBD51A68064951601A68526883
:1002E00002F00C02082AF9D1704700BF0400002078
:1002F00083000001020068004388180A022811D018
:10030000032803D0012810D1094B06E0DBB2022BF1
:100310000BD8074800EB83031B6E18780B60108026
:1003200001207047034B4B20F8E70020704700BFC7
:10033000FC0E00080E0F00080B78024603F0630362
:10034000212B17D18888A8B94B78212B0CD0222BD0
:1003500008D0202B07D1084B08310A5CC254013069
:100360000728FAD101207047034B93650723A2F8B1
:100370005C30F7E70020704720000020036813B5C9
:100380009B690A490446402201209847011E0ADD64
:1003900001AA0648FFF77AFE28B1236882B2DB691A
:1003A00001998120984702B010BD00BF28010020AC
:1003B00038B505460C4619B1012910D000200DE0D2
:1003C000036882205B6998472B6881205B699847A6
:1003D0002B6801205B699847AC63012038BD036836
:1003E00040221B690221204698472B6840221B6946
:1003F0000221812098472B6808221B690321822053
:1004000098470022034B1146AB632B688120DB69C0
:100410009847E2E77D03000808B5FFF711FFFFF7F3
:100420004BFF08220D4C0E4B84F860200D4A2360D0
:10043000C4E915227822A4F85E200B4A5B68E260CA
:100440000A4A012062600A4A226198472368012013
:100450009B689847204600F041FAFBE744000020E3
:10046000880F0008A8000020B10300083903000825
:10047000F9020008002103E0094B5B5843500431A6
:100480000848094B42189A42F6D3084A02E0002372
:1004900042F8043B064B9A42F9D3FFF7BDFF704781
:1004A000BC0F0008040000202800002028000020C5
:1004B00068010020FEE70000034B04491A68516000
:1004C0001B68034A5A6070471800002023016745E3
:1004D000AB89EFCD124A10B51368DB6813F0010346
:1004E00001D0012010BD022411680C61116848611F
:1004F00042201168086142F210711068C068C40798
:1005000003D58B42EDD00133F7E78B42E9D0136876
:10051000DB6813F0140F14BF01200020E2E700BFD6
:1005200018000020F0B5194D2B68DB6813F00103AB
:1005300001D00120F0BD01262C68266142F2107620
:10054000934201DB0020F5E79C074BBF4478C47859
:10055000077887784CBF44EA072444EA0724CC5242
:100560004FF0000448BF04302F68FF68FF0703D531
:10057000B442DED00134F7E7B442DAD02C68E46844
:1005800014F0140FD5D10233DAE700BF18000020B1
:1005900038B50D4603680446DB68887898476B8851
:1005A000002B14BF0323022384F8623038BD836814
:1005B00010B504461BB1416D98470023A36010BDE0
:1005C00038B50D460446036801211B6A05F07F001B
:1005D0009847236801211B6A45F080009847002353
:1005E00084F8633038BD000070B5044616460D46E9
:1005F00051B10B1F022B1AD802F0070300EB830343
:100600005B6BA3B1984712E0022380F8623084F854
:10061000631084F86110036890F860201B69084635
:100620009847084B284663632368DB68984704EBC8
:1006300085035B692BB1324629462046BDE87040F0
:10064000184770BDB906000838B5044694F8633001
:100650000846023B032B24D8DFE803F002022426DD
:1006600094F86050B4F85C30A16D9D4228BF1D46DF
:1006700023682A46DB699847A36D2B44A365B4F829
:100680005C305B1B9BB2A4F85C3053B994F86330C8
:10069000022B03D094F86030AB4202D0042384F8DC
:1006A000633038BD0623FAE70023204684F8633020
:1006B000BDE83840FFF77BBF0529F8B5044616466C
:1006C00009D0062903D0042943D11146AEE0002306
:1006D00080F86330836094F86330656D012B24D01B
:1006E00007D3062B36D031462046BDE8F840FFF749
:1006F00067BF2368B4F85E209B6929463046984757
:100700000828F0D105F10803A365EB88A4F85C3054
:1007100095F90020002A2BDB53B3B4F85E209A42EF
:10072000E1D3012384F8633013E02368B4F85C203C
:100730009B69A16D30469847B4F85C3082B29A420A
:10074000D1D815D010469B1AA4F85C30A36D18447C
:10075000A065F8BD0022236830469B691146984782
:100760000023204684F86330BDE8F840FFF71FBF40
:10077000B4F85E3005F10807A4F85C306368A7653B
:10078000B3B92B7803F06303012B00F08E801CD3E8
:10079000022BA8D16B78012B00F08B80C0F08D80EC
:1007A000032BA0D1012123681B6A287998472AE0EE
:1007B00004F108022946204698470028E1D0012884
:1007C00021D002288FD10523ACE76B78092B8AD87A
:1007D00001A252F823F000BF63080008E7060008F2
:1007E000E7060008E7060008E706000869080008B1
:1007F00035080008E706000801080008830800081B
:1008000094F861302B7295F9003046F08000002B8F
:100810005BDAEB88B4F85C2001469A422ABFA4F860
:100820005C3003230223204684F86330BDE8F8409F
:10083000FFF70ABF40F2FE336A889A4206D1236866
:1008400038461B6B9847A4F85C00DCE72369002B53
:100850003FF449AF04F15C0204F15801284698477F
:10086000ADE700232B81CEE723681B689847C307B9
:1008700004D529462046FFF78BFEC4E7164BA3603C
:10088000C1E7E368AF78002B3FF42DAF394620462F
:10089000984701287FF427AF002F0CBF03230423C0
:1008A00084F8617084F86230ADE76B78002BD9D0A2
:1008B00019E7236800211B6A77E7236828795B6AB8
:1008C0009847002328726B729DE700222368114627
:1008D000DB69984777E700BF910500080368014985
:1008E0009B6A1847E90500084FF4007310B50B4ADE
:1008F0000B4C118811B18B4228BF0B46118911B1E5
:100900008B4228BF0B461032A242F2D100F12002E6
:100910009A429ABF181A80B2002010BD00600040B1
:1009200080600040034BDB6913F4000F14BF2820E4
:10093000002070470010024000F007039B0003F105
:10094000804303F5B8431A8802F4C062B2F5806FA1
:100950000ED000061A881CD502F0300242B11A8867
:1009600039B182F0100222F4E04222F040021A80F3
:10097000704702F4E062B2F5807F1A880BBF82F004
:10098000300282F0200222F4405222F4E04292B27D
:10099000EDE702F44052002AEAD01A8831B182F41D
:1009A000805222F4804222F07002E0E702F4E0621A
:1009B000B2F5807F1A880BBF82F4415282F4405214
:1009C00022F0300222F07002E1E7002070470000C0
:1009D000024B40F08000A3F84C007047005C0040E0
:1009E0002DE9F0414FF6FE7500F007039C001E0153
:1009F00004F1804406F1804601320F4604F5B84404
:100A000006F5C04615409BB2062919D8DFE801F06B
:100A1000041206181818150043F400734FFA80F8F2
:100A2000B8F1000F23800EDB6FB13E2D33D84FEAB3
:100A3000452839E043F48063F0E743F48073EDE741
:100A400043F4C063EAE72846FFF74EFF10B90020E1
:100A5000BDE8F0810023012F3080B38001D0062F44
:100A600013D12846FFF740FF0028F0D00023308143
:100A7000B381238883F0300323F440539BB2B8F151
:100A8000000F2380D1DA0120E2E7238883F02003DE
:100A900023F4E043F2E705F11F034FF6E0751D4034
:100AA0004FEA451808F5F84828461FFA88F8FFF776
:100AB0001BFF0028CBD0012F3081A6F80C8001D07D
:100AC000062F0FD12846FFF70FFF0028BFD0308038
:100AD000A6F80480238883F4415323F030039BB2AB
:100AE0002380D0E7238883F4405323F07003F6E794
:100AF00000F007000301800000F1804000F5B840DD
:100B0000028803F1804322F4786222F00F0252043B
:100B1000520C0280002203F5C0431A819A811A8088
:100B20009A80704730B594880546C4F3090004F4F0
:100B30007C4413889480002214465B0003F18043B8
:100B400003F5C043904200DC30BD12F0010F08BF36
:100B500033F8044B914203DDAC54240A0132F1E72F
:100B60000846F1E700F0070038B50D4611460201CE
:100B7000800000F1804404F5B844238802F18042EB
:100B800003F45C53B3F5185F02F5C04206D012D8E7
:100B9000B3F5005F02D0B3F5085F12D108322846E2
:100BA000FFF7C0FF238883F4405323F4804323F0EE
:100BB000700323801FE0B3F5445F05D0B3F5505FA9
:100BC0001AD04FF0FF3016E044F240002388034073
:100BD00001D0834207D1238823F4E04323F070033C
:100BE00043F040032380238813F0400F18BF0832DE
:100BF0002846FFF797FF38BD238813F4804FF5E7A9
:100C0000002370B514889180640004F1804404F5D9
:100C1000C0440022994200DC70BDC55CDE0006F0D5
:100C20000806B5402A4303F0010592B201330DB91D
:100C30009942EFD124F8042BEBE700F0070070B5E0
:100C400015460201800000F1804404F5B844238871
:100C500002F1804203F4E663B3F5087F0E4602F525
:100C6000C0420ED007D8202B0BD0B3F5907F14D004
:100C70004FF0FF302BE0B3F5866F1FD0B3F5C46F94
:100C8000F6D129463046FFF7BBFF238883F03003B7
:100C900023F4E04323F040030EE023883046590458
:100CA00048BF08322946FFF7ABFF238823F4E0430F
:100CB00023F0700343F48043238007E02388294610
:100CC0005B0658BF08323046FFF79AFF284670BDD2
:100CD000024BB3F84800C0F30A007047005C0040C4
:100CE00070B50C463C490546B1F8440080B2C3B229
:100CF000020403F00F0625D503F007039B0003F160
:100D0000804303F5B8431A8812F0800F1A880DD07B
:100D1000042122F4E14222F070021A8046F080069B
:100D2000324628462346BDE87040184722F070023C
:100D30001205120D1A801B8813F4006F14BF0621D0
:100D40000521EDE7420513D5B1F8443023F4806363
:100D50001B041B0CA1F844300023A1F850301946A5
:100D6000C8B2FFF7C5FE01310829F9D10021D7E744
:100D7000C30411D5B1F8403023F008031B041B0C49
:100D8000A1F84030B1F8443023F480531B041B0C0D
:100D9000A1F844300321C3E702050FD5B1F8403074
:100DA00043F00803A1F84030B1F8443023F4006365
:100DB0001B041B0CA1F844300221B1E7830409D5C0
:100DC000B1F8443023F400531B041B0CA1F8443049
:100DD0000721A5E770BD00BF005C004000F00703DD
:100DE0009B0003F1804303F5B84310F0800F18888F
:100DF00006D000F03000102814BF002001207047FA
:100E000000F44050B0F5805FF6E700000F4BDA6960
:100E100088B142F40002DA611A6942F400021A61F0
:100E20001A6922F400021A614FF43C42A3F5DA3346
:100E3000A3F840207047120207D51A6942F4000255
:100E40001A61DA6922F40002DA6170470010024088
:100E500004221F4B30B5196803F1C24303F5E513B3
:100E60001C4D03F2DD53CCB26340013A05FB03F3A2
:100E70004FEA1121F7D1184A164D11680422CCB25D
:100E80006340013A05FB03F34FEA1121F7D1134AFE
:100E9000104D11680422CCB26340013A05FB03F304
:100EA0004FEA1121F7D105461C2223FA02F101F085
:100EB0000F010A2934BF30243724043A214425F88D
:100EC000021F111DF1D140F212330380122030BDF8
:100ED000E8F7FF1F93010001ECF7FF1FF0F7FF1F7A
:100EE00000070E091C1B1215383F363124232A2D0A
:100EF000426F6F74302E300D0000000012010002AE
:100F0000EF0201088304405700010102FE010902BB
:100F10004B00020100C032080B000202020000096F
:100F20000400000102020000052400100105240154
:100F300000010424020005240600010705820308BD
:100F400000FF09040100020A000000070501024039
:100F5000000107058102400001000000840F000825
:100F60007A0F0008680F0008100342006F006F003E
:100F7000740030002E003000000008034F005000C5
:100F80005000000004030904250900080D0E0008A4
:100F9000CB090008D1090008E1090008F10A00089E
:100FA000650B00083B0C000839090008DD0D00083E
:0C0FB000E10C0008D10C0008510E0008F4
:100FBC00001002400030024000ED00E0000C014047
:100FCC000010000800200240005C00400096000069
:040FDC000000080009
:040000050800047576
:00000001FF
