:020000040800F2
:100000000050002075040008B4040008B40400087F
:10001000B4040008B4040008B4040008F0B516469F
:1000200003780C4FB41AA14201DC0370F0BD16F83E
:10003000015B85EA030424093C5D84EA0313DCB216
:1000400085EA141505F00F057B5D83EA0413DBB226
:10005000E8E700BFE00E00080B4B70B51D686C6947
:1000600044F040046C6101255C68A56000248C426A
:1000700003D15B681B68136070BD50F824605D6835
:1000800001342E60F3E700BF040000202DE9F347A0
:10009000624E05468946904600243746DFF89CA10B
:1000A0004C4533786CDB052B6CD0002002B0BDE8EA
:1000B000F0873BB92B5D022B0FD1594A13700123F6
:1000C00033700AE0012B18D12B5D554A052B537074
:1000D00001D0802B03D105233B700134E0E7012BD5
:1000E00007D80223337000234E4A13604E4A136030
:1000F000F3E7022BF1D00023EEE7022B22D14A4A8C
:100100004749136815F804C0C81880F802C0285D74
:1001100003F1010CDFF80CE1C3F10303DB0000FA8B
:1001200003F3DEF80000BCF1030F40EA0300C2F85D
:1001300000C0CEF80000D0D94B78002BCBD10321E2
:100140003170D4E7032B0BD1374B19684A1C1A6066
:10015000334B285D0B44072A9871BEDD0423AFE7BB
:10016000042BC8D1FF2302A800F8013D52460D21FF
:10017000FFF754FF2A5D9DF807309A42BBD1AAE7EA
:10018000052B96D1264C6378052B06D10820274BEA
:10019000C8F8003000233B7088E7802B05D1244B42
:1001A000244A9B68DA600020F4E7B3B91D4D00F0E3
:1001B00083F92868C0F3090252B1082229681E4851
:1001C00000F0B0F90028EED1C8F800400620E1E7C1
:1001D00000F080F90028F0D0E5E7012BE3D1114BC6
:1001E0001D680023D94303F00402585D01F00301A8
:1001F000224401330A44082B9071F3D1FF2302A853
:1002000000F8013D0D4A0D21FFF708FF9DF807306A
:100210000F20A373C8F80040BCE700BF28000020EF
:10022000300000202C00002040000020F00E0008CC
:10023000040000200400FA053600002031000020F0
:10024000082213B5194C23689A614FF000531A68BD
:10025000174B9A4203D0E3689B685A0705D54FF0C5
:10026000005300221A6002B010BD2069416AB1F546
:10027000704FF8D28B07F6D101AA8908FFF7ECFE80
:10028000019A2169D2434B6A019203F1006303F59D
:1002900080531B689A42E6D10B6883F30888054BAC
:1002A000A26893605B689847DDE700BF0400002008
:1002B000EFBEADDE0010000812210C4B5A69116030
:1002C0004FF4D0011A6851601A68094911601A6820
:1002D00012689201FBD51A68064951601A68526883
:1002E00002F00C02082AF9D1704700BF0400002078
:1002F00083000001020068004388180A022811D018
:10030000032803D0012810D1094B06E0DBB2022BF1
:100310000BD8074800EB83031B6E18780B60108026
:1003200001207047034B4B20F8E70020704700BFC7
:10033000FC0E00080E0F00080B78024603F0630362
:10034000212B17D18888A8B94B78212B0CD0222BD0
:1003500008D0202B07D1084B08310A5CC254013069
:100360000728FAD101207047034B93650723A2F8B1
:100370005C30F7E70020704720000020036813B5C9
:100380009B690A490446402201209847011E0ADD64
:1003900001AA0648FFF77AFE28B1236882B2DB691A
:1003A00001998120984702B010BD00BF28010020AC
:1003B00038B505460C4619B1012910D000200DE0D2
:1003C000036882205B6998472B6881205B699847A6
:1003D0002B6801205B699847AC63012038BD036836
:1003E00040221B690221204698472B6840221B6946
:1003F0000221812098472B6808221B690321822053
:1004000098470022034B1146AB632B688120DB69C0
:100410009847E2E77D03000808B5FFF711FFFFF7F3
:100420004BFF08220D4C0E4B84F860200D4A2360D0
:10043000C4E915227822A4F85E200B4A5B68E260CA
:100440000A4A012062600A4A226198472368012013
:100450009B689847204600F041FAFBE744000020E3
:10046000880F0008A8000020B10300083903000825
:10047000F9020008002103E0094B5B5843500431A6
:100480000848094B42189A42F6D3084A02E0002372
:1004900042F8043B064B9A42F9D3FFF7BDFF704781
:1004A000BC0F0008040000202800002028000020C5
:1004B00068010020FEE70000034B04491A68516000
:1004C0001B68034A5A6070471800002023016745E3
:1004D000AB89EFCD124A10B51368DB6813F0010346
:1004E00001D0012010BD022411680C61116848611F
:1004F00042201168086142F210711068C068C40798
:1005000003D58B42EDD00133F7E78B42E9D0136876
:10051000DB6813F0140F14BF01200020E2E700BFD6
:1005200018000020F0B5194D2B68DB6813F00103AB
:1005300001D00120F0BD01262C68266142F2107620
:10054000934201DB0020F5E79C074BBF4478C47859
:10055000077887784CBF44EA072444EA0724CC5242
:100560004FF0000448BF04302F68FF68FF0703D531
:10057000B442DED00134F7E7B442DAD02C68E46844
:1005800014F0140FD5D10233DAE700BF18000020B1
:1005900038B50D4603680446DB68887898476B8851
:1005A000002B14BF0323022384F8623038BD836814
:1005B00010B504461BB1416D98470023A36010BDE0
:1005C00038B50D460446036801211B6A05F07F001B
:1005D0009847236801211B6A45F080009847002353
:1005E00084F8633038BD000070B5044616460D46E9
:1005F00051B10B1F022B1AD802F0070300EB830343
:100600005B6BA3B1984712E0022380F8623084F854
:10061000631084F86110036890F860201B69084635
:100620009847084B284663632368DB68984704EBC8
:1006300085035B692BB1324629462046BDE87040F0
:10064000184770BDB906000838B5044694F8633001
:100650000846023B032B24D8DFE803F002022426DD
:1006600094F86050B4F85C30A16D9D4228BF1D46DF
:1006700023682A46DB699847A36D2B44A365B4F829
:100680005C305B1B9BB2A4F85C3053B994F86330C8
:10069000022B03D094F86030AB4202D0042384F8DC
:1006A000633038BD0623FAE70023204684F8633020
:1006B000BDE83840FFF77BBF0529F8B5044616466C
:1006C00009D0062903D0042943D11146AEE0002306
:1006D00080F86330836094F86330656D012B24D01B
:1006E00007D3062B36D031462046BDE8F840FFF749
:1006F00067BF2368B4F85E209B6929463046984757
:100700000828F0D105F10803A365EB88A4F85C3054
:1007100095F90020002A2BDB53B3B4F85E209A42EF
:10072000E1D3012384F8633013E02368B4F85C203C
:100730009B69A16D30469847B4F85C3082B29A420A
:10074000D1D815D010469B1AA4F85C30A36D18447C
:10075000A065F8BD0022236830469B691146984782
:100760000023204684F86330BDE8F840FFF71FBF40
:10077000B4F85E3005F10807A4F85C306368A7653B
:10078000B3B92B7803F06303012B00F08E801CD3E8
:10079000022BA8D16B78012B00F08B80C0F08D80EC
:1007A000032BA0D1012123681B6A287998472AE0EE
:1007B00004F108022946204698470028E1D0012884
:1007C00021D002288FD10523ACE76B78092B8AD87A
:1007D00001A252F823F000BF63080008E7060008F2
:1007E000E7060008E7060008E706000869080008B1
:1007F00035080008E706000801080008830800081B
:1008000094F861302B7295F9003046F08000002B8F
:100810005BDAEB88B4F85C2001469A422ABFA4F860
:100820005C3003230223204684F86330BDE8F8409F
:10083000FFF70ABF40F2FE336A889A4206D1236866
:1008400038461B6B9847A4F85C00DCE72369002B53
:100850003FF449AF04F15C0204F15801284698477F
:10086000ADE700232B81CEE723681B689847C307B9
:1008700004D529462046FFF78BFEC4E7164BA3603C
:10088000C1E7E368AF78002B3FF42DAF394620462F
:10089000984701287FF427AF002F0CBF03230423C0
:1008A00084F8617084F86230ADE76B78002BD9D0A2
:1008B00019E7236800211B6A77E7236828795B6AB8
:1008C0009847002328726B729DE700222368114627
:1008D000DB69984777E700BF910500080368014985
:1008E0009B6A1847E90500084FF4007310B50B4ADE
:1008F0000B4C118811B18B4228BF0B46118911B1E5
:100900008B4228BF0B461032A242F2D100F12002E6
:100910009A429ABF181A80B2002010BD00600040B1
:1009200080600040034BDB6913F4000F14BF2820E4
:10093000002070470010024000F007039B0003F105
:10094000804303F5B8431A8802F4C062B2F5806FA1
:100950000ED000061A881CD502F0300242B11A8867
:1009600039B182F0100222F4E04222F040021A80F3
:10097000704702F4E062B2F5807F1A880BBF82F004
:10098000300282F0200222F4405222F4E04292B27D
:10099000EDE702F44052002AEAD01A8831B182F41D
:1009A000805222F4804222F07002E0E702F4E0621A
:1009B000B2F5807F1A880BBF82F4415282F4405214
:1009C00022F0300222F07002E1E7002070470000C0
:1009D000024B40F08000A3F84C007047005C0040E0
:1009E0002DE9F0414FF6FE7500F007039C001E0153
:1009F00004F1804406F1804601320F4604F5B84404
:100A000006F5C04615409BB2062919D8DFE801F06B
:100A1000041206181818150043F400734FFA80F8F2
:100A2000B8F1000F23800EDB6FB13E2D33D84FEAB3
:100A3000452839E043F48063F0E743F48073EDE741
:100A400043F4C063EAE72846FFF74EFF10B90020E1
:100A5000BDE8F0810023012F3080B38001D0062F44
:100A600013D12846FFF740FF0028F0D00023308143
:100A7000B381238883F0300323F440539BB2B8F151
:100A8000000F2380D1DA0120E2E7238883F02003DE
:100A900023F4E043F2E705F11F034FF6E0751D4034
:100AA0004FEA451808F5F84828461FFA88F8FFF776
:100AB0001BFF0028CBD0012F3081A6F80C8001D07D
:100AC000062F0FD12846FFF70FFF0028BFD0308038
:100AD000A6F80480238883F4415323F030039BB2AB
:100AE0002380D0E7238883F4405323F07003F6E794
:100AF00000F007000301800000F1804000F5B840DD
:100B0000028803F1804322F4786222F00F0252043B
:100B1000520C0280002203F5C0431A819A811A8088
:100B20009A80704730B594880546C4F3090004F4F0
:100B30007C4413889480002214465B0003F18043B8
:100B400003F5C043904200DC30BD12F0010F08BF36
:100B500033F8044B914203DDAC54240A0132F1E72F
:100B60000846F1E700F0070038B50D4611460201CE
:100B7000800000F1804404F5B844238802F18042EB
:100B800003F45C53B3F5185F02F5C04206D012D8E7
:100B9000B3F5005F02D0B3F5085F12D108322846E2
:100BA000FFF7C0FF238883F4405323F4804323F0EE
:100BB000700323801FE0B3F5445F05D0B3F5505FA9
:100BC0001AD04FF0FF3016E044F240002388034073
:100BD00001D0834207D1238823F4E04323F070033C
:100BE00043F040032380238813F0400F18BF0832DE
:100BF0002846FFF797FF38BD238813F4804FF5E7A9
:100C0000002370B514889180640004F1804404F5D9
:100C1000C0440022994200DC70BDC55CDE0006F0D5
:100C20000806B5402A4303F0010592B201330DB91D
:100C30009942EFD124F8042BEBE700F0070070B5E0
:100C400015460201800000F1804404F5B844238871
:100C500002F1804203F4E663B3F5087F0E4602F525
:100C6000C0420ED007D8202B0BD0B3F5907F14D004
:100C70004FF0FF302BE0B3F5866F1FD0B3F5C46F94
:100C8000F6D129463046FFF7BBFF238883F03003B7
:100C900023F4E04323F040030EE023883046590458
:100CA00048BF08322946FFF7ABFF238823F4E0430F
:100CB00023F0700343F48043238007E02388294610
:100CC0005B0658BF08323046FFF79AFF284670BDD2
:100CD000024BB3F84800C0F30A007047005C0040C4
:100CE00070B50C463C490546B1F8440080B2C3B229
:100CF000020403F00F0625D503F007039B0003F160
:100D0000804303F5B8431A8812F0800F1A880DD07B
:100D1000042122F4E14222F070021A8046F080069B
:100D2000324628462346BDE87040184722F070023C
:100D30001205120D1A801B8813F4006F14BF0621D0
:100D40000521EDE7420513D5B1F8443023F4806363
:100D50001B041B0CA1F844300023A1F850301946A5
:100D6000C8B2FFF7C5FE01310829F9D10021D7E744
:100D7000C30411D5B1F8403023F008031B041B0C49
:100D8000A1F84030B1F8443023F480531B041B0C0D
:100D9000A1F844300321C3E702050FD5B1F8403074
:100DA00043F00803A1F84030B1F8443023F4006365
:100DB0001B041B0CA1F844300221B1E7830409D5C0
:100DC000B1F8443023F400531B041B0CA1F8443049
:100DD0000721A5E770BD00BF005C004000F00703DD
:100DE0009B0003F1804303F5B84310F0800F18888F
:100DF00006D000F03000102814BF002001207047FA
:100E000000F44050B0F5805FF6E700000F4BDA6960
:100E100088B142F40002DA611A6942F400021A61F0
:100E20001A6922F400021A614FF43C42A3F5DA3346
:100E3000A3F840207047120207D51A6942F4000255
:100E40001A61DA6922F40002DA6170470010024088
:100E500004221F4B30B5196803F1C24303F5E513B3
:100E60001C4D03F2DD53CCB26340013A05FB03F3A2
:100E70004FEA1121F7D1184A164D11680422CCB25D
:100E80006340013A05FB03F34FEA1121F7D1134AFE
:100E9000104D11680422CCB26340013A05FB03F304
:100EA0004FEA1121F7D105461C2223FA02F101F085
:100EB0000F010A2934BF30243724043A214425F88D
:100EC000021F111DF1D140F212330380122030BDF8
:100ED000E8F7FF1F93010001ECF7FF1FF0F7FF1F7A
:100EE00000070E091C1B1215383F363124232A2D0A
:100EF000426F6F74302E300D0000000012010002AE
:100F0000EF0201088304405700010102FE010902BB
:100F10004B00020100C032080B000202020000096F
:100F20000400000102020000052400100105240154
:100F300000010424020005240600010705820308BD
:100F400000FF09040100020A000000070501024039
:100F5000000107058102400001000000840F000825
:100F60007A0F0008680F0008100342006F006F003E
:100F7000740030002E003000000008034F005000C5
:100F80005000000004030904250900080D0E0008A4
:100F9000CB090008D1090008E1090008F10A00089E
:100FA000650B00083B0C000839090008DD0D00083E
:100FB000E10C0008D10C0008510E0008001002409E
:100FC0000030024000ED00E0000C0140001000087D
:100FD00000200240005C0040009600000000080075
:101000000050002025680008516300085363000861
:10101000556300085763000859630008000000008A
:1010200000000003A0630000000000005B630008F4
:101030005D630008000000005F6300086163000852
:101040006D6800086D6800086D6800086D6800082C
:101050006D6800086D6800086D6800086D6800081C
:101060006D6800086D6800086D6800086D6800080C
:101070006D6800086D6800086D6800086D680008FC
:101080006D6800086D6800086D6800086D680008EC
:10109000696300086D6800086D6800086D680008E5
:1010A0006D6800086D6800086D6800086D680008CC
:1010B0006D6800086D6800086D6800086D680008BC
:1010C0006D6800086D6800086D6800086D680008AC
:1010D0006D6800086D6800086D6800086D6800089C
:1010E0006D6800086D6800086D6800080000000069
:1010F00000000000000000000000000000000000F0
:0C11000000000000000000005FF808F193
:10110C0010B5054C237833B9044B13B10448AFF335
:10111C0000800123237010BD5C0200200000000041
:10112C00AC69000808B5034B1BB103490348AFF386
:10113C00008008BD0000000060020020AC690008BF
:10114C0010B504460E4B18784FF47A73B3FBF0F3DA
:10115C000C4A1068B0FBF3F000F08EF868B90F2C55
:10116C0001D901200AE0002221464FF0FF3000F0A7
:10117C0041F8034B5C60002000E0012010BD00BF73
:10118C00000000209401002008B5074A136843F0C2
:10119C0010031360032000F01BF80020FFF7D0FFB2
:1011AC0005F0AEF8002008BD00200240034A11688B
:1011BC00034B1B780B441360704700BFAC0400203A
:1011CC0000000020014B1868704700BFAC040020E1
:1011DC00074AD36823F4E0631B041B0C000200F4E1
:1011EC00E060184340F0BF6040F40030D0607047BE
:1011FC0000ED00E030B4174BDB68C3F30223C3F1FE
:10120C000704042C28BF04241D1D062D18D9033BEC
:10121C004FF0FF3505FA04F421EA0401994005FA70
:10122C0003F322EA0303194300280BDB0901C9B2BB
:10123C0000F1604000F5614080F8001330BC70474D
:10124C000023E5E700F00F000901C9B2024B195465
:10125C00F4E700BF00ED00E014ED00E0002807DB30
:10126C0000F01F02400901239340024A42F820304B
:10127C00704700BF00E100E00138B0F1807F0AD276
:10128C00064B5860064AF02182F823100020986023
:10129C0007221A6070470120704700BF10E000E081
:1012AC0000ED00E0F0B482B000263246A2E0002D42
:1012BC005AD0012D00D1CE68FF2B69D88446FF2B64
:1012CC0069D89500DCF800400F27AF4024EA0704EA
:1012DC0006FA05F52C43CCF800404C6814F0805FFE
:1012EC0000F087805F4CA56945F00105A561A469F4
:1012FC0004F001040194019C9508AF1C5A4C54F85D
:10130C00274002F00307BF004FF00F0C0CFA07FC4C
:10131C0024EA0C0C554CA04243D004F58064A04246
:10132C0000F0818004F58064A0427ED004F58064D6
:10133C00A04234D0042435E04D4FBD4214D00BD91B
:10134C004C4FBD4210D007F58037BD420CD0A7F5ED
:10135C008017BD42B0D107E0A7F58017BD4203D07E
:10136C0007F58037BD42A7D18D687DB1012D08D01E
:10137C0044610826A0E7CE6808369DE7CE680C3697
:10138C009AE70461082697E7002695E7042693E779
:10139C0000F1040C93E7A2F10805AD0092E70324D9
:1013AC0000E00024BC4044EA0C0402352E4F47F800
:1013BC0025404C6814F4803F39D02F4D2C681C43C9
:1013CC002C604C6814F4003F37D02B4D6C681C43D8
:1013DC006C604C6814F4801F35D0274DAC681C43EE
:1013EC00AC604C6814F4001F33D0234DEC682343DD
:1013FC00EB6001320B6833FA02F430D001249440D4
:10140C0023409C42F5D14D68122DB7D094D8022DB3
:10141C00B1D07FF64CAF032DB6D0112D7FF44CAF6D
:10142C00CE68043648E70124BCE70224BAE7124D23
:10143C002C6824EA03042C60C3E70F4D6C6824EA83
:10144C0003046C60C5E70C4DAC6824EA0304AC6083
:10145C00C7E7094DEC6824EA0303EB60C9E702B067
:10146C00F0BC704700100240000001400008014031
:10147C00000021100000311000040140F0B587B0CD
:10148C00002873D0044690F82932D3B1032384F892
:10149C002932206800F0DBFF254655F8107B6E469C
:1014AC000FCD0FC62B683360231D0ECB384600F0D2
:1014BC00BFFF58B1022384F829320125284607B012
:1014CC00F0BD80F8283205F009F8DFE7002120682C
:1014DC0000F0C7FF002311E004EB4312012182F856
:1014EC00291082F82830D386002182F82B109163C2
:1014FC00D1639A1C5201A1500133DBB26068834264
:10150C00EAD3002312E004EB4311002281F82921D5
:10151C0081F8283181F82B21C1F83821C1F83C2100
:10152C0003F10A01490162500133DBB29842EAD857
:10153C00254655F8107B6E460FCD0FC62B683360D1
:10154C00231D0ECB384600F08EFF054620B102233A
:10155C0084F829320125B1E7002384F824300123D3
:10156C0084F82932206801F0B0FAA7E70125A5E735
:10157C0090F82832012B10D010B50446012180F8C8
:10158C00281205F0B6F8206801F09DFA206800F0EA
:10159C0056FF002084F8280210BD0220704790F8F6
:1015AC002832012B0DD010B50446012380F82832C7
:1015BC0080F82410006801F080FA002084F82802DA
:1015CC0010BD0220704770B511F0800F23D101F0CF
:1015DC0007056D0105F5947404440544002685F84F
:1015EC00296101F0070121702261E370627802B178
:1015FC00E181022B1AD090F82832012B19D0054624
:10160C00012380F828322146006800F042FF0020B8
:10161C0085F8280270BD01F007056D0105F128045D
:10162C0004440544012685F82960DAE70023237178
:10163C00E1E70220EEE710B511F0800F1CD101F0AC
:10164C0007035B0103F5947202440344002483F8FE
:10165C00294101F00703137090F82832012B16D0A2
:10166C000446012380F828321146006801F0C5F8C1
:10167C00002084F8280210BD01F007035B0103F180
:10168C00280202440344012483F82940E1E70220A4
:10169C00F1E770B501F007056C0104F59471014494
:1016AC000444C4F83C2105F10A0252018618835007
:1016BC000023736084F8293184F8285125B100681F
:1016CC0001F01FFA002070BD006801F01AFAF9E76A
:1016DC0001F007010A3100EB41114868704770B501
:1016EC0001F007056C0104F1280101440444E26394
:1016FC00AA1C52018618835000237360012384F8BE
:10170C00293084F8285025B1006801F0FAF900203E
:10171C0070BD006801F0F5F9F9E7F8B504462068EA
:10172C00B0F8443013F4004F00F0AD81B0F8443001
:10173C009BB213F00F0540F0CD8013F0100F58D072
:10174C0003889BB213F4006F40F0898013F4004FB0
:10175C00E5D0038823F070031B051B0D43F08003B9
:10176C0003802068B0F8503094F8282103EBC203B2
:10177C00063300EB4303B3F80034C3F30903C4F896
:10178C0044318BB1D4F83C1171B1B4F82E2101F075
:10179C0048FBD4F84421D4F83C311344C4F83C3110
:1017AC000021204604F0C2FE2368B3F850201344F5
:1017BC00D4F83821002A74D1B3F80C2492B222F454
:1017CC00F84292B2A3F80C24B3F80C2442F4004271
:1017DC00A3F80C24226813889BB223F4804323F0D3
:1017EC00700383F4405343F4004343F080031380AD
:1017FC0095E703889BB223F4E14323F070036FEA6F
:10180C0043436FEA53439BB203802268B2F85030D3
:10181C0094F8281003EBC103023302EB4303B3F833
:10182C000034C3F309036364E26B1344E3630021E4
:10183C00204604F085FE94F82430002B3FF46FAF63
:10184C00236C002B7FF46BAF94F82430226843F0A8
:10185C008003A2F84C30002384F824305FE7B0F802
:10186C00503094F8282103EBC203063300EB4303FA
:10187C00B3F80034C3F30903C4F84431B4F82E218F
:10188C0004F50C7101F0CDFA2268138823F0700373
:10189C001B051B0D43F080031380204604F03EFE15
:1018AC003DE73E2A09D8510812F0010F00D0013152
:1018BC00890289B2A3F80C148CE7510912F01F0F9E
:1018CC0000D101396FEAC1626FEA524292B2A3F8B9
:1018DC000C247FE730F82560B6B216F4004F33D1F4
:1018EC0016F0800F3FF41BAF226832F825309BB204
:1018FC0023F4E14323F070036FEA43436FEA53434D
:10190C009BB222F825302268B2F8503004EB451017
:10191C0090F8281003EBC103023302EB4303B3F836
:10192C000024C2F30902AB1C5B01E1184A60C16BD5
:10193C000A44C263E358002B40F09D8090F82810B5
:10194C00204604F0FDFDEAE630F8253023F0700364
:10195C001B051B0D43F0800320F8253004EB4513C9
:10196C0093F83431D3B92068B0F8503004EB4512F9
:10197C0092F8282103EBC203063300EB4303B3F8C0
:10198C000074C7F309078FB304EB45113B46B1F85C
:10199C002E21D1F83C1101F044FA27E0206804EB29
:1019AC00451393F8282130F8223013F4804F43D09C
:1019BC00B0F8503003EBC203023300EB4303B3F82F
:1019CC000074C7F309076FBB226804EB451393F847
:1019DC00281132F821309BB223F4E04323F070033A
:1019EC0043F4004343F0C00322F8213005F10A030D
:1019FC005B01E1184A683A444A6004EB4511D1F89E
:101A0C003C213A44C1F83C21E3581BB1D1F83811C0
:101A1C008F4228D204EB451393F82811204604F08A
:101A2C0085FD5DE704EB45113B46B1F83021D1F85B
:101A3C003C1101F0F6F9C7E7B0F8503003EBC203E4
:101A4C00063300EB4303B3F80074C7F30907002F08
:101A5C00BAD004EB45113B46B1F83221D1F83C1118
:101A6C0001F0DFF9B0E704EB451191F8281120469D
:101A7C00FFF70FFE34E704EB451595F828102046C8
:101A8C00FFF72DFE4BE60020F8BD10B504460068AC
:101A9C0001F01DF810F4004F45D1206801F017F843
:101AAC0010F4806F43D1206801F011F810F4804FCE
:101ABC0008D02268B2F844309BB223F480439BB226
:101ACC00A2F84430206801F002F810F4005F08D04E
:101ADC002268B2F844309BB223F400539BB2A2F8B4
:101AEC004430206800F0F3FF10F4805F30D12068A0
:101AFC0000F0EDFF10F4006F49D1206800F0E7FF13
:101B0C0010F4007F6DD1206800F0E1FF10F4807FAD
:101B1C0008D02268B2F844309BB223F480739BB295
:101B2C00A2F8443010BD2046FFF7F7FDB5E7226858
:101B3C00B2F844309BB223F480639BB2A2F84430D9
:101B4C00204604F00CFD00212046FFF728FDAAE7F3
:101B5C002268B2F840309BB223F004039BB2A2F887
:101B6C0040302268B2F840309BB223F008039BB29D
:101B7C00A2F84030204604F013FD2268B2F844303D
:101B8C009BB223F480539BB2A2F84430AFE7226897
:101B9C00B2F8403043F00803A2F840302268B2F8A3
:101BAC0044309BB223F400639BB2A2F84430226809
:101BBC00B2F8403043F00403A2F84030206800F043
:101BCC0086FF10F4805F08D02268B2F844309BB2D4
:101BDC0023F480539BB2A2F84430204604F0D0FC8E
:101BEC008BE72268B2F844309BB223F400739BB2AB
:101BFC00A2F84430204604F0ACFC84E738B501F080
:101C0C00070543689D422CD811F0800F1AD14B0167
:101C1C0003F5947101440344002283F82921012324
:101C2C008B700D7090F82832012B1CD004460123C8
:101C3C0080F82832006800F0CAFE65B1002084F8F4
:101C4C0028020FE06B0103F1280101440344012237
:101C5C0083F82920E3E704F50C71206800F03AFFC3
:101C6C00ECE7012038BD0220FCE701F00F024368CD
:101C7C009A422DD810B511F0800F1ED101F0070338
:101C8C005B0103F5947202440344002483F8294158
:101C9C000023937001F00703137090F82832012B86
:101CAC0018D00446012380F828321146006800F051
:101CBC00B3FE002084F8280210BD01F007035B017D
:101CCC0003F1280202440344012483F82940DFE78E
:101CDC00012070470220EFE711F0800F0CD001F0CB
:101CEC0007014901283101445AB101220A730B81C1
:101CFC001B0C4B8100207047490101F59471014484
:101D0C00F2E70A73CB80F5E782B0084B1B68084AF0
:101D1C00A2FB03235B0A00FB03F0019000BF019BB5
:101D2C005A1E0192002BF9D102B070479401002089
:101D3C00D34D6210002800F0F58170B582B00446D6
:101D4C00036813F0010F2CD0AB4B5B6803F00C0352
:101D5C00042B1DD0A84B5B6803F00C03082B12D08E
:101D6C006368B3F5803F41D0002B55D103F180431C
:101D7C0003F504331A6822F480321A601A6822F4CC
:101D8C0080221A6037E09C4B5B6813F4803FE7D0ED
:101D9C00994B1B6813F4003F03D06368002B00F0D1
:101DAC00C381236813F0020F76D0934B5B6813F05A
:101DBC000C0F5FD0904B5B6803F00C03082B54D0D6
:101DCC002369002B00F08A808C4B01221A60FFF7EC
:101DDC00F9F90546884B1B6813F0020F75D1FFF714
:101DEC00F1F9401B0228F5D90320A0E1824A1368BF
:101DFC0043F480331360636843B3FFF7E3F905469C
:101E0C007D4B1B6813F4003FCBD1FFF7DBF9401B74
:101E1C006428F5D903208AE1B3F5A02F09D0764BBD
:101E2C001A6822F480321A601A6822F480221A602E
:101E3C00E1E703F18043A3F53C331A6842F48022B6
:101E4C001A601A6842F480321A60D4E7FFF7BAF9C4
:101E5C000546694B1B6813F4003FA2D0FFF7B2F99B
:101E6C00401B6428F5D9032061E1634B5B6813F4D4
:101E7C00803FA5D1604B1B6813F0020F04D023697F
:101E8C00012B01D0012052E15B4A136823F0F803C7
:101E9C00616943EAC1031360236813F0080F32D061
:101EAC00A369002B5BD0564B01221A60FFF78AF90D
:101EBC000546514B5B6A13F0020F21D1FFF782F9F3
:101ECC00401B0228F5D9032031E14B4A136823F05B
:101EDC00F803616943EAC1031360DDE7474B002255
:101EEC001A60FFF76FF90546434B1B6813F0020F9E
:101EFC00D2D0FFF767F9401B0228F5D9032016E171
:101F0C000120FFF701FF236813F0040F00F0988005
:101F1C00394BDB6913F0805F33D1374BDA6942F010
:101F2C008052DA61DB6903F080530193019B012538
:101F3C00344B1B6813F4807F25D0E368012B36D01B
:101F4C00002B4CD103F1804303F504331A6A22F0C1
:101F5C0001021A621A6A22F004021A622CE0284B5F
:101F6C0000221A60FFF72EF90546234B5B6A13F02B
:101F7C00020FC8D0FFF726F9401B0228F5D9032021
:101F8C00D5E00025D4E71F4A136843F4807313602F
:101F9C00FFF718F906461B4B1B6813F4807FCCD156
:101FAC00FFF710F9801B6428F5D90320BFE0124A13
:101FBC00136A43F001031362E3687BB3FFF702F982
:101FCC0006460D4B1B6A13F0020F38D1FFF7FAF8D7
:101FDC00801B41F288339842F3D90320A7E0052BEC
:101FEC0012D0054B1A6A22F001021A621A6A22F008
:101FFC0004021A62E0E700BF0010024000004242F7
:10200C0080044242007000404C4B1A6A42F00402B9
:10201C001A621A6A42F001021A62CDE7FFF7D2F88F
:10202C000646464B1B6A13F0020F08D0FFF7CAF89E
:10203C00801B41F288339842F3D9032077E0E5B94D
:10204C00E369002B72D03D4A526802F00C02082A58
:10205C0056D0022B17D03A4B00221A60FFF7B2F879
:10206C000446364B1B6813F0007F47D0FFF7AAF8E5
:10207C00001B0228F5D9032059E0304AD36923F01C
:10208C008053D361DCE72E4B00221A60FFF79AF8DD
:10209C0005462A4B1B6813F0007F06D0FFF792F819
:1020AC00401B0228F5D9032041E0236AB3F5803F99
:1020BC001AD022494B6823F47413226A606A0243D3
:1020CC0013434B601E4B01221A60FFF77BF804464A
:1020DC001A4B1B6813F0007F0ED1FFF773F8001B2F
:1020EC000228F5D9032022E0144A536823F4003364
:1020FC00A1680B435360DCE7002018E0002016E0D9
:10210C00012B16D00D4B5B6803F48031226A91428F
:10211C0001D001200BE003F47013626A93420AD0E1
:10212C00012004E001207047012000E0002002B0F3
:10213C0070BD0120FBE70020F9E700BF0010024052
:10214C006000424210B487B0164C94E80F000DF1B9
:10215C00180C0CE90F00238AADF80430124B5B68A5
:10216C0003F00C02082A1AD1C3F38342624412F81A
:10217C00102C13F4803F05D10C4800FB02F007B083
:10218C0010BC7047084B5B68C3F34043634413F8BF
:10219C00143C074800FB02F0B0FBF3F0EFE70448F7
:1021AC00EDE700BFC46900080010024000093D00C3
:1021BC0000127A00002800F0A38070B50446524B40
:1021CC001B6803F007038B420CD24F4A136823F0B1
:1021DC0007030B431360136803F007038B4201D012
:1021EC00012070BD236813F0020F17D013F0040FF9
:1021FC0004D0464A536843F4E0635360236813F0F9
:10220C00080F04D0414A536843F4605353603F4A6B
:10221C00536823F0F003A068034353600D46236812
:10222C0013F0010F31D06368012B20D0022B25D085
:10223C00364A126812F0020F64D034494A6822F010
:10224C00030213434B60FEF7BDFF06462F4B5B6842
:10225C0003F00C036268B3EB820F16D0FEF7B2FFEB
:10226C00801B41F288339842F0D90320B9E7274A02
:10227C00126812F4003FE0D10120B2E7234A126841
:10228C0012F0007FD9D10120ABE71F4B1B6803F084
:10229C000703AB420CD91C4A136823F007032B43EA
:1022AC001360136803F00703AB4201D0012098E7D9
:1022BC00236813F0040F06D0144A536823F4E06328
:1022CC00E1680B435360236813F0080F07D00F4AE3
:1022DC00536823F46053216943EAC1035360FFF749
:1022EC0031FF0A4B5B68C3F30313094AD35CD84034
:1022FC00084B1860084B1868FEF722FF002070E7A7
:10230C000120704701206CE70020024000100240C1
:10231C00DC700008940100200400002070B582B02D
:10232C000446036813F0010F34D03E4BDB6913F005
:10233C00805F48D13B4BDA6942F08052DA61DB694D
:10234C0003F080530193019B0125374B1B6813F459
:10235C00807F3AD0334B1B6A13F4407311D0626800
:10236C0002F440729A420CD02E4A136A23F4407045
:10237C002E4901260E6000260E60106213F0010F2C
:10238C0037D1284A136A23F4407361680B431362F4
:10239C00002D3FD1236813F0020F06D0214A536859
:1023AC0023F44043A1680B435360236813F0100FD0
:1023BC0035D01C4A536823F48003E1680B43536007
:1023CC00002002B070BD0025BFE7174A136843F424
:1023DC0080731360FEF7F6FE0646134B1B6813F46E
:1023EC00807FB7D1FEF7EEFE801B6428F5D9032061
:1023FC00E7E7FEF7E7FE06460A4B1B6A13F0020FEF
:10240C00BFD1FEF7DFFE801B41F288339842F3D92F
:10241C000320D6E7D36923F08053D361BAE70020B9
:10242C00CFE700BF00100240007000404004424261
:10243C0084B001A880E80E00002004B07047B0F80A
:10244C00403043F43F43A0F8403000207047B0F8D0
:10245C00403023F47C535B045B0CA0F8403000202C
:10246C0070470020704784B038B505AC84E80E0086
:10247C000123A0F840300024A0F84040A0F84440CC
:10248C00A0F85040FFF7DBFF2046BDE8384004B011
:10249C00704730B403460C7830F8242092B222F402
:1024AC00EC4222F0700292B2C87803285AD8DFE8C6
:1024BC0000F04D550251002048F280052A4323F8C4
:1024CC0024200C7833F8242092B222F4E04222F03B
:1024DC00700222432A4323F824200A7B002A40F06E
:1024EC00B1804A78002A4ED0B3F850201A440C78A8
:1024FC0002EB0412CC8864086400A2F800440C7847
:10250C0033F8242012F0400F0CD033F8242092B270
:10251C0022F4E04222F0700242F4004242F0C00287
:10252C0023F82420CA78012A1ED0097833F82120F8
:10253C0092B222F4E04222F0400282F0200242F4F5
:10254C00004242F0800223F8212060E042F4007245
:10255C000020B1E742F4C0620020ADE742F4806293
:10256C000020A9E70120A7E7097833F8212092B2CF
:10257C0022F4E04222F0400242F4004242F0800297
:10258C0023F8212043E0B3F850201A440C7802EBD6
:10259C000412CC8864086400A2F80844B3F85020F4
:1025AC001A440C7802EB04120C6994BBB2F80C447C
:1025BC00A4B224F4F844A4B2A2F80C44B2F80C442B
:1025CC0044F40044A2F80C440C7833F8242012F4A0
:1025DC00804F0CD033F8242092B222F4E04222F047
:1025EC00700242F4404242F0800223F82420097821
:1025FC0033F8212092B222F4804222F0700282F44D
:10260C00405242F4004242F0800223F8212030BCB8
:10261C0070473E2C09D8650814F0010F00D0013525
:10262C00AD02ADB2A2F80C54CEE7650914F01F0F41
:10263C0000D1013D6FEAC5646FEA5444A4B2A2F81C
:10264C000C44C1E70C7833F8242092B222F4E04217
:10265C0022F0700242F4014242F0800223F824205E
:10266C00B3F850201A440C7802EB04120C8964085D
:10267C006400A2F80044B3F850201A440C7802EB22
:10268C0004124C8964086400A2F808444A78002AB1
:10269C004ED10C7833F8242012F4804F0CD033F840
:1026AC00242092B222F4E04222F0700242F4404222
:1026BC0042F0800223F824200C7833F8242012F006
:1026CC00400F0CD033F8242092B222F4E04222F0D6
:1026DC00700242F4004242F0C00223F824200C782D
:1026EC0033F8242092B222F4E04222F0700242F439
:1026FC00004242F0C00223F824200D7833F8252044
:10270C0092B222F4804222F0700282F4405248F2DB
:10271C008004224323F82520097833F8212092B233
:10272C0022F4E04222F04002224323F821206EE7FB
:10273C000C7833F8242012F4804F0CD033F824207A
:10274C0092B222F4E04222F0700242F4404242F093
:10275C00800223F824200C7833F8242012F0400F48
:10276C000CD033F8242092B222F4E04222F0700212
:10277C0042F4004242F0C00223F824200C7833F8D3
:10278C00242092B222F4E04222F0700242F4404241
:10279C0042F0800223F82420CA78012A1ED00C783B
:1027AC0033F8242092B222F4E04222F0400282F06C
:1027BC00200242F4004242F0800223F824200978DF
:1027CC0033F8212092B222F4804222F0700242F4BB
:1027DC00004242F0800223F8212018E70C7833F8ED
:1027EC00242092B222F4E04222F0400242F4004251
:1027FC0042F0800223F82420E1E70B7B002B46D12A
:10280C004B7813B30A7830F8223013F0400F0CD009
:10281C0030F822309BB223F4E04323F0700343F4EE
:10282C00004343F0C00320F822300A7830F82230FD
:10283C009BB223F4E04323F0400343F4004343F002
:10284C00800320F82230002070470A7830F82230BC
:10285C0013F4804F0CD030F822309BB223F4E043B9
:10286C0023F0700343F4404343F0800320F82230FC
:10287C000A7830F822309BB223F4804323F07003A3
:10288C0043F4004343F0800320F82230DBE710B41C
:10289C004B78002B4ED10A7830F8223013F4804F4D
:1028AC000CD030F822309BB223F4E04323F07003B9
:1028BC0043F4404343F0800320F822300A7830F888
:1028CC00223013F0400F0CD030F822309BB223F49E
:1028DC00E04323F0700343F4004343F0C00320F8BB
:1028EC0022300A7830F822309BB223F4E04323F0F4
:1028FC00700343F4004343F0C00320F822300B78FC
:10290C0030F8232092B222F4804222F0700248F276
:10291C008004224320F823200A7830F822309BB21E
:10292C0023F4E04323F04003234320F8223000201B
:10293C0010BC70470A7830F8223013F4804F0CD05A
:10294C0030F822309BB223F4E04323F0700343F4BD
:10295C00404343F0800320F822300A7830F82230CC
:10296C0013F0400F0CD030F822309BB223F4E0432C
:10297C0023F0700343F4004343F0C00320F82230EB
:10298C000A7830F822309BB223F4E04323F0700332
:10299C0043F4404343F0800320F822300B7830F8A6
:1029AC00232092B222F4E04222F0400248F280044A
:1029BC00224320F823200A7830F822309BB223F4EB
:1029CC00804323F07003234320F82230AFE74B7889
:1029DC008BB90A7830F822309BB223F4804323F071
:1029EC00700383F4805343F4004343F0800320F8D6
:1029FC002230002070470A7830F822309BB223F442
:102A0C00E04323F0400383F0100343F4004343F00E
:102A1C00800320F82230ECE70B7B002B4BD14B785A
:102A2C0033B30A7830F8223013F0400F0CD030F862
:102A3C0022309BB223F4E04323F0700343F40043B1
:102A4C0043F0C00320F82230CB78012B33D00A7826
:102A5C0030F822309BB223F4E04323F0400383F0A0
:102A6C00200343F4004343F0800320F8223022E09B
:102A7C000A7830F8223013F4804F0CD030F8223022
:102A8C009BB223F4E04323F0700343F4404343F040
:102A9C00800320F822300A7830F822309BB223F4DD
:102AAC00804323F0700383F4405343F4004343F01A
:102ABC00800320F822300020704711B98023A0F841
:102ACC004C30002070470020704700207047B0F851
:102ADC00440070470020704701335B0800EB420252
:102AEC0002F5806263B110B40C78487844EA002493
:102AFC0022F8044B0231013B002BF5D110BC70477E
:102B0C00704770B54E78012E33D08A690B699A42A2
:102B1C0040F2FC80D21A8A610A7B002A40F01381B1
:102B2C00B0F8502002440C7802EB0412002B40F059
:102B3C00F180B2F80C349BB223F4F8439BB2A2F8A8
:102B4C000C34B2F80C3443F40043A2F80C340A7879
:102B5C0030F822309BB223F4804323F0700383F4CB
:102B6C00405343F4004343F0800320F8223000200C
:102B7C0070BD8A690B699A4222D9D21A8A610C46B5
:102B8C0005460A7B02B30A7830F8221011F0400F88
:102B9C0072D0002E40D1B0F85010014401EB02125B
:102BAC000BBBB2F80C1489B221F4F84189B2A2F82B
:102BBC000C14B2F80C1441F40041A2F80C1433E0DC
:102BCC0000238B611346DAE79EB23346CA88496903
:102BDC00FFF782FFB5F850302B44227803EB021339
:102BEC00A3F8046437E03E2B09D8590813F0010F01
:102BFC0000D00131890289B2A2F80C1414E05909F1
:102C0C0013F01F0F00D101396FEAC1616FEA514116
:102C1C0089B2A2F80C1407E0B0F85010014401EB93
:102C2C00021299B2A2F80C1462899BB2616928460F
:102C3C00FFF752FF6378002B57D1227835F82230FA
:102C4C009BB223F4E04323F0700343F4004343F0BE
:102C5C00C00325F82230227835F822309BB223F4B9
:102C6C00E04323F0400383F0300343F4004343F08C
:102C7C00800325F822307AE76EBBB0F8501001447F
:102C8C0001EB021273B9B2F8041489B221F4F841C1
:102C9C0089B2A2F80414B2F8041441F40041A2F869
:102CAC00041420E03E2B09D8590813F0010F00D072
:102CBC000131890289B2A2F8041414E0590913F005
:102CCC001F0F00D101396FEAC1616FEA514189B21E
:102CDC00A2F8041407E0B0F85010014401EB021202
:102CEC0099B2A2F8041422899FE7012BB3D1227860
:102CFC0035F822309BB223F4E04323F0700343F405
:102D0C00404343F0800325F82230A4E700238B6175
:102D1C00134601E73E2B09D85C0813F0010F00D0D5
:102D2C000134A402A4B2A2F80C4410E75C0913F01D
:102D3C001F0F00D1013C6FEAC4646FEA5444A4B283
:102D4C00A2F80C4403E7A6B9B0F8502002440C7862
:102D5C0002EB041233BBB2F80444A4B224F4F844DA
:102D6C00A4B2A2F80444B2F8044444F40044A2F817
:102D7C0004444A78002A47D1B0F8502002440C7819
:102D8C0002EB04123BBBB2F80C349BB223F4F843B5
:102D9C009BB2A2F80C34B2F80C3443F40043A2F802
:102DAC000C34D4E63E2B09D85C0813F0010F00D08C
:102DBC000134A402A4B2A2F80444DAE75C0913F0CB
:102DCC001F0F00D1013C6FEAC4646FEA5444A4B2F3
:102DDC00A2F80444CDE73E2B09D85C0813F0010F90
:102DEC0000D00134A402A4B2A2F80C44AFE65C09F2
:102DFC0013F01F0F00D1013C6FEAC4636FEA534319
:102E0C009BB2A2F80C34A2E6012A7FF4A0AEB0F873
:102E1C00502002440C7802EB04129BB2A2F80C3442
:102E2C0095E630B45D0800EB420202F5806207E0E3
:102E3C0032F8044BA4B20C70240A4C700231013DE0
:102E4C00002DF5D113F0010F01D013880B7030BC9D
:102E5C00704710B5D0F8B842D0F8BC325BB194F8DA
:102E6C000002FF2807D09B6894F80122214698475E
:102E7C00FF2384F80032002010BD000043230380A0
:102E8C000048704708000020432303800048704727
:102E9C004C00002043230380004870479000002022
:102EAC000A23038000487047D400002038B504463C
:102EBC00D0F8B85203F012FCC5F80C02D4F8B832B2
:102ECC004BB1D4F8BC32DB6805F50371D5F80402BC
:102EDC009847002038BD0220FCE738B5D0F8B8225E
:102EEC00D0F8C052EAB101EB8104A3000344DB69C2
:102EFC003BB105EB4115AD6BB3FBF5F405FB14339E
:102F0C001BB10020C2F8140238BD01EB8102930002
:102F1C0003440024DC612346224603F0CFFB204609
:102F2C00F2E70220F0E770B582B005460C46D0F807
:102F3C00B86200238DF80730ADF804300B7813F02D
:102F4C00600227D0202A56D1CA883AB9D0F8BC32B0
:102F5C009B6800224878984700204FE013F0800FC0
:102F6C000CD0D0F8BC329B68314660789847E28828
:102F7C003146284600F0AEFD00203FE04B7886F845
:102F8C0000328B7986F80132CA88314600F0B7FDE1
:102F9C00002033E04B780A2B14D00B2B21D01BB123
:102FAC0000F077FA022029E090F89C32032B05D12F
:102FBC00022201A900F08EFD00201FE000F069FA4A
:102FCC0002201BE090F89C32032B06D101220DF15C
:102FDC00070100F07FFD002010E000F05AFA0220FB
:102FEC000CE090F89C32032B01D1002006E000F09D
:102FFC0050FA022002E000F04CFA022002B070BD40
:10300C0038B50446812103F026FB0025E562012139
:10301C00204603F020FBC4F86C518221204603F0BB
:10302C001AFB2564D4F8B8324BB1D4F8BC325B68C7
:10303C009847D4F8B80203F05BFBC4F8B8520020F0
:10304C0038BD38B50446037CA3BB4FF40073022291
:10305C00812103F0F5FA0125E5624FF40073022299
:10306C002946204603F0ECFAC4F86C5108230322DD
:10307C008221204603F0E4FA012323644FF4077005
:10308C0003F032FB0546C4F8B80268B3D4F8BC327E
:10309C001B6898470023C5F81432C5F81832237CF6
:1030AC00C3B14023D5F804220121204603F00EFBC6
:1030BC00002038BD40230222812103F0C1FA0125F2
:1030CC00E562402302222946204603F0B9FAC4F8EF
:1030DC006C51CBE74FF40073D5F804220121204644
:1030EC0003F0F4FA0020E4E70120E2E719B1C0F89C
:1030FC00BC120020704702207047D0F8B832C3F8D9
:10310C000812C3F8102200207047D0F8B832C3F868
:10311C00041200207047D0F8B822A2B108B5D2F83A
:10312C0014320BB1012008BD0123C2F81432D2F8BD
:10313C0010320363B2F81032D2F80822812103F066
:10314C00BDFA0020EFE702207047D0F8B8229AB100
:10315C0008B5037C3BB14023D2F80422012103F0D3
:10316C00B5FA002008BD4FF40073D2F804220121F7
:10317C0003F0ACFA0020F5E70220704798B108B5CF
:10318C000346D0F8B40210B10020C3F8B40209B160
:10319C00C3F8B0121846012380F89C32027003F079
:1031AC0005FA002008BD0220704719B1C0F8B4120E
:1031BC00002070470220704708B503F039FA002050
:1031CC0008BD08B5D0F8B43233B11B68984708B9BC
:1031DC00002008BD0220FCE70220FAE708B5D0F871
:1031EC00B4325B689847002008BD38B5044600F53A
:1031FC002A75284600F039F90123C4F89432B4F842
:10320C00AE32C4F8983294F8A81201F01F03012BC7
:10321C000ED03BB1022B10D001F08001204603F000
:10322C0022FA03E02946204600F0CDFA002038BDF2
:10323C002946204600F0FBFAF8E72946204600F024
:10324C0026FBF3E738B50446A1BB1046D4F89432FC
:10325C00032B03D0052B24D0002037E0D4F86031A9
:10326C00D4F8642193420DD99B1AC4F860319A4268
:10327C0006D99AB20146204600F050FC002025E009
:10328C0092B2F7E7D4F8B4321B692BB194F89C22B4
:10329C00032A01D120469847204600F047FC002025
:1032AC0014E00025C4F894522946204603F0DBF9BB
:1032BC0028460BE00A46D0F8B4329B693BB190F833
:1032CC009C12032905D111469847002038BD0220D5
:1032DC00FCE70220FAE710B50446002953D110464A
:1032EC00D4F89432022B0CD0042B00D01BB98021C3
:1032FC00204603F0B8F994F8A032012B3FD00020FF
:10330C004DE0236A626A93421DD8E169B1FBF2F386
:10331C0002FB13132BB98A4203D8D4F89832994282
:10332C001FD3D4F8B432DB682BB194F89C22032A57
:10333C0001D1204698478021204603F094F920467D
:10334C0000F0FFFBD7E79A1A226292B201462046A0
:10335C0000F0CDFB00231A461946204603F0B6F9BF
:10336C00C9E700221146204600F0C1FB0021C4F839
:10337C0098120B460A46204603F0A8F9BBE700203A
:10338C0084F8A0020BE00A46D0F8B4325B693BB17A
:10339C0090F89C12032905D111469847002010BDC6
:1033AC000220FCE70220FAE770B504464023002215
:1033BC00114603F045F90125C4F858514026C4F8CC
:1033CC006461334600228021204603F039F9A5615F
:1033DC00666284F89C520023C4F894326360C4F88B
:1033EC00A432D4F8B8322BB1D4F8B4325B680021D3
:1033FC0020469847002070BD01740020704790F85B
:10340C009C3280F89D32042380F89C320020704757
:10341C0090F89C32042B01D00020704790F89D321C
:10342C0080F89C32F8E708B590F89C32032B01D059
:10343C00002008BDD0F8B432DB69002BF8D09847D7
:10344C00F6E7002302E00133DBB201300278002AF8
:10345C00F9D11846704708B54B88012B00D008BD30
:10346C00C0F8A43200F062FBF9E70B7803704B78DC
:10347C0043708B78CA7803EB022343800B794A792B
:10348C0003EB022383808B79CA7903EB0223C3807D
:10349C00704710B50446802103F0E5F80021204662
:1034AC0003F0E1F810BD30B583B005460C4600239F
:1034BC00ADF806304A88130A013B062B00F2A480B3
:1034CC00DFE803F004182CA2A2869300D0F8B032E7
:1034DC001B680DF10601007C9847BDF806201AB157
:1034EC00E388002B40F09480E388002B00F09A8056
:1034FC0003B030BD037C43B9D0F8B4329B6A0DF1F4
:10350C000600984702234370E7E7D0F8B432DB6A31
:10351C000DF10600984702234370DEE7D2B2052A6C
:10352C0052D8DFE802F003101D2A3744D0F8B0322D
:10353C005B6823B10DF10601007C9847CDE721466D
:10354C00FFF7A7FFD4E7D0F8B0329B6823B10DF199
:10355C000601007C9847C0E72146FFF79AFFC7E7B2
:10356C00D0F8B032DB6823B10DF10601007C98472E
:10357C00B3E72146FFF78DFFBAE7D0F8B0321B69ED
:10358C0023B10DF10601007C9847A6E72146FFF711
:10359C0080FFADE7D0F8B0325B6923B10DF10601C5
:1035AC00007C984799E72146FFF773FFA0E7D0F816
:1035BC00B0329B6923B10DF10601007C98478CE772
:1035CC002146FFF766FF93E72146FFF762FF8FE77F
:1035DC00037C33B9D0F8B4325B6B0DF1060098471D
:1035EC007BE72146FFF755FF82E7037C43B9D0F810
:1035FC00B4321B6B0DF106009847072343706CE740
:10360C002146FFF746FF73E72146FFF742FF6FE7BE
:10361C009A4228BF1A46ADF806200146284600F00B
:10362C0059FA61E7284600F081FA61E738B504469B
:10363C008B88F3B9CB88E3B94B887F2B19D803F06F
:10364C007F0590F89C32032B0CD080F89E522946B3
:10365C0003F02CF8204600F069FA35B1022384F807
:10366C009C3209E0FFF715FF06E0012384F89C3239
:10367C0002E02046FFF70DFF38BD000038B50446C8
:10368C000D468978284B197001290ED890F89C3278
:10369C00022B0ED0032B21D02946FFF7FAFE224B2A
:1036AC0019782046FFF79AFD02E02946FFF7F1FE54
:1036BC0038BD81B14160032380F89C32FFF781FD56
:1036CC00022803D0204600F031FAF1E729462046C3
:1036DC00FFF7DFFEECE700F029FAE9E789B1436870
:1036EC0099421DD0D9B2FFF779FD0F4B1978616063
:1036FC002046FFF766FD02280DD0204600F016FA92
:10370C00D6E7022380F89C324160FFF767FD204624
:10371C0000F00CFACCE729462046FFF7BAFEC7E7C3
:10372C0000F004FAC4E700BF7802002008B5CB888B
:10373C00012B0BD190F89C329BB1022B09D9032B96
:10374C000FD10122011D00F0C5F901E0FFF7A1FE28
:10375C0008BD0146002341F8083F012200F0BAF9E8
:10376C00F6E7FFF796FEF3E708B590F89C32013BBD
:10377C00022B12D8CB88022B0CD10123C360D0F8BA
:10378C00A4320BB10323C360022200F10C0100F040
:10379C00A1F908BDFFF77DFEFBE7FFF77AFEF8E71E
:1037AC0008B590F89C32013B022B09D84B88012BB1
:1037BC0000D008BD0023C0F8A43200F0B7F9F8E738
:1037CC00FFF767FEF5E708B50B7803F06003202BD5
:1037DC0005D0402B03D043B1FFF75BFE03E0D0F8DC
:1037EC00B4329B689847002008BD4B78092B1BD836
:1037FC00DFE803F011171A141A08051A0E0BFFF75D
:10380C0052FEF0E7FFF712FFEDE7FFF737FFEAE7AD
:10381C00FFF78CFFE7E7FFF7A7FFE4E7FFF71BFED7
:10382C00E1E7FFF7BDFFDEE7FFF733FEDBE738B577
:10383C0005460C460B7803F06003202B06D0402B7A
:10384C0004D01BB1FFF725FE002038BD95F89C3243
:10385C00013B022B16D82379012B0ED8D5F8B432A4
:10386C009B68214628469847E388002BECD100281A
:10387C00EAD1284600F05AF9E6E721462846FFF738
:10388C0008FEE1E721462846FFF703FEDCE738B5E2
:10389C0004468A880B7803F06003202B08D0D0B242
:1038AC00402B05D05BB12046FFF7F3FD002005E06F
:1038BC00D4F8B4329B6820469847002038BD202BA2
:1038CC0005D1D4F8B4329B6820469847F6E74B787C
:1038DC00012B32D0002B5ED0032B40F0D88094F813
:1038EC009C32022B06D0032B16D02046FFF7D1FDBD
:1038FC000020E3E708B1802804D12046FFF7C9FD7A
:10390C000020DBE70146204602F0ADFE8021204678
:10391C0002F0A9FE0020D1E74B8823B918B180280A
:10392C0001D0CB8823B1204600F000F90020C5E778
:10393C000146204602F097FEF5E794F89C32022BE4
:10394C0006D0032B16D02046FFF7A3FD0020B5E7C9
:10395C0008B1802804D12046FFF79BFD0020ADE77D
:10396C000146204602F07FFE8021204602F07BFEBD
:10397C000020A3E74B88002B40F08E8010F07F0FC7
:10398C0004D1204600F0D2F8002097E701462046EB
:10399C0002F071FEF5E794F89C32022B06D0032B53
:1039AC002AD02046FFF775FD002087E708B1802854
:1039BC0013D112F0800F15D100F07F0000EB8000C6
:1039CC00830003F5A8712144043100250D60022207
:1039DC00204600F07FF8284670E72046FFF759FD97
:1039EC0000206BE700F07F0000EB8000830003F108
:1039FC00100121440431E8E752B2002A1FDB00F029
:103A0C000F0303EB83039D002544D5F8583123B3F2
:103A1C00002A27DB00F07F0202EB8202930003F501
:103A2C00A8752544043508B1802825D100232B60C6
:103A3C0002222946204600F04DF800203EE700F017
:103A4C000F0303EB83039D002544AB69002BDFD1EF
:103A5C002046FFF71EFD002030E72046FFF719FD3A
:103A6C0000202BE700F07F0202EB8202930003F1AF
:103A7C00100525440435D6E70146204602F003FE26
:103A8C0010B101232B60D3E700232B60D0E7204635
:103A9C00FFF7FFFC002011E700200FE7C8B170B55D
:103AAC000D4616460446FFF7CCFC01304000308032
:103ABC00287003236B70022307E001345A1CD2B226
:103ACC00E9540233DBB20021A95421780029F4D146
:103ADC0070BD704710B513460222C0F89422C36122
:103AEC0003620A46002102F0E9FD002010BD08B572
:103AFC0013460A46002102F0E1FD002008BD10B576
:103B0C0013460322C0F89422C0F85C31C0F860312F
:103B1C000A46002102F0DAFD002010BD08B513465C
:103B2C000A46002102F0D2FD002008BD08B504238E
:103B3C00C0F8943200231A46194602F0BFFD00204B
:103B4C0008BD08B50523C0F8943200231A4619465F
:103B5C0002F0BCFD002008BD38B5164AFF2382F8E0
:103B6C007C30022382F8803082F8813082F88230F7
:103B7C0082F88330104B4FF0407159608C320F4BF0
:103B8C0003E019781170013201330D498B42F8D3DF
:103B9C000C4A141FFC21204602F004FA0A4D284658
:103BAC0002F060F94FF480722946204602F094F935
:103BBC0038BD00BFEC0C0020DC0C0020D8690008DC
:103BCC00F86900086C0D002000FC0008AD4B1B7858
:103BDC0003B970472DE9F047AA4C206A02F0F2F8BD
:103BEC000746636A13F0060F5AD0A74E736843401A
:103BFC00226A03EA020901240025A846B4360AE029
:103C0C003368102B01DC013333603368102B0ED07A
:103C1C000135640004361F2D44DC9A4B1B6A234289
:103C2C00F6D014EA090FEBD000233360F0E7954B84
:103C3C00D3F880315B5D3C4217D093498A682243AC
:103C4C008A60022BE4D172B6DFF838A2DAF8283099
:103C5C002343CAF8283062B602F02CFA05F11C0393
:103C6C000AEB430AAAF80400D2E748EA040886499A
:103C7C008A6822EA04028A60012BC9D172B6DFF885
:103C8C0004A2DAF828302343CAF8283062B602F0CE
:103C9C0011FA05F11C030AEB430AAAF80400B7E772
:103CAC004FF00008774B5B6A13F0200F30D0764B47
:103CBC0093F82D2093F82E309A4243D2724B93F8FE
:103CCC002D300BBB704991F82C200132D2B281F807
:103CDC002C20072A03D90A46002182F82C106A49A5
:103CEC008A6942F47F028A61664A5279002A00F09E
:103CFC0089800A4691F82C00C0F11700012101FAC5
:103D0C0000F051690143516101335F4A82F82D3053
:103D1C005C4B5B6A13F0020F40F08280594B5B6A7C
:103D2C0013F0060F0CD072B65648836A56490A69CE
:103D3C0023EA02038C6822401343836262B64F600D
:103D4C00BDE8F087504C002684F82D60E06802F046
:103D5C0039F8000EC1B294F82C304A4A1A44957CBA
:103D6C004D409174DB00143304EB43030933012100
:103D7C00324610E01C78444E96F82F60B44201D8BD
:103D8C0001341C701E78404C94F82F40A64209D088
:103D9C00013249000233072A90DC0D42EAD000249C
:103DAC001C70F5E710EA010402D0364E76792EB974
:103DBC00002CEDD1334C6479002CE9D1314C647971
:103DCC00B4B1314C94F82C602E4C3444A67A0E438A
:103DDC00A6725C78002CDBD004F00704012606FAEE
:103DEC0004F4284EB6F81AC044EA0C047483CFE7E6
:103DFC00254C94F82C60234C3444A67A26EA010610
:103E0C00A672E6E7204991F82C20C2F11700012296
:103E1C008240D24302F47F02486902434A6173E74D
:103E2C0002F048F900F00F0040004FF0010A0AFAC6
:103E3C0000FA02F045F9B0F5FA7F01D34FEA4A0ACD
:103E4C00114CE269A3691343A3610E4BD3F87C5167
:103E5C0001264FF0000904F59A741EE001236370EB
:103E6C0002F028F92061E168074A53690B4353615A
:103E7C002FE013F0080F2CD00423637002F01AF912
:103E8C00206126E0EC0C0020B004002000232370FD
:103E9C0009F10109760018340335B9F10F0F3FF71A
:103EAC003DAF637823BB744A528B324203D16269B3
:103EBC0012EA080F1CD02B7813F00C0FCED013F095
:103ECC00040FD6D005236370E1686C4A53690B4329
:103EDC0053612B7813F0020FD8D0674B5B8B3342B6
:103EEC00D4D023EA0603644A538301232370CFE71B
:103EFC00012B1ED0022B73D0032B00F08B80042BD4
:103F0C0000F0A080052BC3D15B4B5B8B334206D1F9
:103F1C006369002B00F0AC80BB4300F0A9806368A0
:103F2C0013EA0A0FB4D0E168544A53690B43536146
:103F3C00AEE72B7813F0200F09D04F4B5B8B33423D
:103F4C0005D163690BB1BB4301D100236370637866
:103F5C00012B9DD102F0AEF82369C31A6A789A42FC
:103F6C0033DC2B7813F01C0F27D1AB7813F00F0F29
:103F7C001BD0237823B1032363700023A37018E0B4
:103F8C0002236370AB7803F00F03013B5B0001333A
:103F9C003B4A52F82330A36013EA0A0F09D0E168B8
:103FAC00364A53690B43536103E0032363700023C8
:103FBC00A37002F07FF820616AE713F0180FF8D0B5
:103FCC00032363700023A370F3E7636813EA0A0FFB
:103FDC003FF45EAFE168294A53690B43536157E7DD
:103FEC00254B5B8B334205D163690BB1BB4301D1CC
:103FFC0001232370237853B9A36813EA0A0F3FF403
:10400C0047AFE1681D4A53690B43536140E70023F6
:10401C0063703DE702F04EF82369C01A6B78834257
:10402C003FF736AFA3781033DBB2A370AA7802F057
:10403C007002934202D30023637029E702F03AF82E
:10404C00206125E702F036F82369C01AAB785B00D3
:10405C0003F01E0383423FF71BAF0123637002F092
:10406C0029F82061E168054A53690B4353610FE756
:10407C00002363700CE700BFEC0C0020B0040020A0
:10408C00F86900081F2821D830B401F00F0311F093
:10409C00800F0DD1012585401B4C5A00D018C10052
:1040AC002144D1F848012843C1F8480130BC70477D
:1040BC0001258540144C5A00D018C1002144D1F878
:1040CC00480120EA0500C1F84801EFE720383F28F5
:1040DC0018DC0E4B5B6A13F0200F13D049B2002989
:1040EC0009DB01F00F0141F080011430064B03EBAA
:1040FC004000817270471430034B03EB40000023E7
:10410C0083727047704700BFB0040020EC0C002095
:10411C000F290BD800F01F00054B53F8200001EBC2
:10412C004101CA00034B1344C3F83801704700BF68
:10413C00F8690008B0040020274A1388184002F5DB
:10414C009A72012100233FE05C0004F0180403F094
:10415C0003052C43012505FA04F4556925EA0405E9
:10416C0055610133183249000F2B28DC0842F8D076
:10417C0000245470194CD4F87C5103EB43042C5D8F
:10418C0014F0010FE0D05C0004F0180403F00305F8
:10419C002C4304F12C06104D05EB860500266E60B1
:1041AC000E4DAD8B0D42DCD1012505FA04F40B4DFF
:1041BC002D6A2542D5D055692C435461D1E770BC8A
:1041CC0070470133183249000F2B03DC0842F8D03A
:1041DC0070B4CDE7704700BFB0040020EC0C002099
:1041EC00F0B4114BD3F8804110490123002208E0B0
:1041FC000F4E356925EA030535610132043101346E
:10420C005B001F2A0EDC1E460342F6D000250D6013
:10421C0025783F2DF1D8002DEAD1054F3D692E436D
:10422C003E61EAE7F0BC7047EC0C0020640500200E
:10423C00B0040020AF4BD3F8803133B37047002467
:10424C005C70881001F0030202EBC0020432012002
:10425C0000FA02F2DA605C614FF0FF325A600144FE
:10426C0018330F29EBDDA44A002313809360D3602D
:10427C00D361A04AD2F88801C2F8800100F1200174
:10428C00C2F888111D461E460FE0F0B585B000211E
:10429C009A4BE6E7D900FF2202FA01F1954C226A0B
:1042AC000A432262012B37D00133032B00F3A58084
:1042BC00904A1A4492F88020022AEBD0012A2DD081
:1042CC00042A5AD00A2A58D0062A74D0082A7FD039
:1042DC00032A05D0072A03D00B2A01D00C2AE3D1DC
:1042EC00D900FF228A401543DEE701320F2ADBDCBE
:1042FC00815C3F29F9D9012404FA02FC7D490F6A3B
:10430C0027EA0C070F62A2F10807BC404F7A3C4326
:10431C004C7245EA0C05E8E70822E7E7DC00F022DE
:10432C00A24015439A000F2101FA02F2724E37880F
:10433C003A433280A1406F4C226A11432162012B17
:10434C0017D00126B0E701320B2A14DC815C3F291F
:10435C00F9D9012404FA02F766490E6A26EA07061F
:10436C000E62A2F10806B4404E7A34434C723D43BF
:10437C00E9E70822E8E7012696E7022B03D05D4A1D
:10438C000221917190E75B4991F883100529F6D1D0
:10439C005949002481F82C4081F82D4045F47F05C3
:1043AC00CC6844F07F44CC60042A7FF47DAF514A42
:1043BC000121517178E71BB14E4A0321917173E7CA
:1043CC004C490A6A42F0EF020A6245F010056BE7AD
:1043DC001BB1484A0321917166E746490A6A42F0CB
:1043EC000E020A62444A118841F00F01118045F017
:1043FC00F1050126C2F8406156E7002413E03E4A5D
:10440C00D268134225D0002301933A4B5B79EBB170
:10441C00022302933A4B03EBC4036946D3F88000A2
:10442C00FCF740FF01341F2C29DC354B03EBC40394
:10443C00B3F8843000932F4B1A6A0123A3401A421D
:10444C00DDD00023019301230293E3E701230293C0
:10445C00E0E72B42E6D002230393A4F10803072BD9
:10446C0002D901230193D5E7224B5B7AA4F1080210
:10447C00134113F0010FF4D002230193CAE71D4B33
:10448C00186A1D4CE368184301F09CFCA0600423DF
:10449C000093012301930223039369461948FCF707
:1044AC0001FF3EB1134AD2F88831C2F87C31303367
:1044BC00C2F8883100210FE001330E4AD2F8802176
:1044CC0004F1080002449A4205D91A783F2AF3D81D
:1044DC0000221A70F0E70131032915DC054B0B445F
:1044EC0093F88030012BF6D1024BD3F88031CC00FD
:1044FC002344E2E7EC0C0020B0040020E40500208B
:10450C00F8690008000C0140344B5B6A13F0200F73
:10451C003DD0324BD3F880311A7C5AB9304A022143
:10452C0082F82E105B7C4BB92D4B042283F82F2084
:10453C00002210E02A4981F82E20F3E7284A82F85D
:10454C002F30F5E702F11401254B03EB4103002159
:10455C005972997201323F2AF4DD204BD3F87C2139
:10456C00002301E0013303320F2B0DDC117811F025
:10457C00100FF7D0917863F07F0001F11404184903
:10458C0001EB44018872EDE7144B5B795BB10122BE
:10459C00002314490CE0114A1A44FF219172013393
:1045AC00072BF8DDF3E70023FAE70133183152004B
:1045BC000F2B09DC0A4800881042F6D0CD68084C55
:1045CC00E0692843E061F0E74FF6FF70FFF7B4FDB8
:1045DC00024B186AFFF704FE05B0F0BDEC0C00208E
:1045EC00B0040020E4050020034B5A6910435861C5
:1045FC009A69114399617047B004002010B5044CBE
:10460C00A169606901F07CFB00236361A36110BDAB
:10461C00B0040020044A002303E000211170013390
:10462C000132972BF9D97047640700202DE9F0412E
:10463C000D4617461E4604132E4AC4EBC4018B00CC
:10464C001344DD6293682B4493602B4B9B793BB1F5
:10465C00294B9B799BB1284B9B7923B3BDE8F08107
:10466C00284602F029F9C4EBC4039A00214B1344E9
:10467C0018630028ECD1204B01229A71E8E7E30083
:10468C001B1B4FEA83081B4B9844D8F830303B6017
:10469C00284602F011F9C8F834000028DBD1164B7B
:1046AC0001229A71D7E7E3001B1B9A00114F1744A4
:1046BC007B6B3360A80002F0FFF8B86378B1012679
:1046CC000D4BDE700B49E3001F1BBA000A4482F845
:1046DC002860069ED663079B1364002307E0064BF5
:1046EC0001229A71BAE7002220F8042B0133AB4265
:1046FC00F9DBB3E764070020EC0C0020074B9B6848
:10470C00002B08DB1B11054AD3600F2B02DC134670
:10471C001022DA6070470F33F4E700BF6407002003
:10472C00014B01221A707047640700200B4A536A30
:10473C009832934205D21A7852B91C33074A536205
:10474C00F4E7002333B9054B00225A70DA61704745
:10475C000123F7E7014B00229A61704764070020A0
:10476C002DE9F0413C4B9A694FF6FF739A420FD0FA
:10477C00394B5B78002B6DD0374B5A6AD7689B69E5
:10478C001F4496681E44146904EB8304002538E02A
:10479C00FFF7CCFFECE707F1010897F800C0771C96
:1047AC003678B44514D9ACEB060E5FFA8EFE01FBDD
:1047BC000EF1B1FBF3F3DBB2B4450ED93344D9B2ED
:1047CC00536998476388013363803E46474609E046
:1047DC00A6EB0C0E5FFA8EFEE9E7F31AD9B2EFE7FF
:1047EC000137013604341C4A936901339361D36950
:1047FC000133D361D16893FBF1F201FB123303B99E
:10480C000125154B98695A6A5368984215DAA5B96F
:10481C002388002BE4D061888B42BCD807F10108B7
:10482C003978771C31700C4B5A6A526998699047E9
:10483C00002323803E464746D4E798420ADB93691F
:10484C009847054B4FF6FF729A615A6A1C325A62AE
:10485C00FFF76CFFBDE8F0816407002008B50F4B33
:10486C001B78B3B10D4BDB789BB10D4B1B786BB147
:10487C000B4B5B7853B90A4B00221A704FF6FF7240
:10488C009A6103F128025A6201225A70044B5B7838
:10489C0003B908BDFFF764FFFBE700BFEC0C002079
:1048AC006407002010B4104B01249C7000249C80E1
:1048BC001961030B032B15D8C3EBC3039C0004F144
:1048CC002803094C23442362C0F30B0060610844A5
:1048DC005B68984206DC0549A1FB0212D208A28053
:1048EC000022A27010BC704764070020CDCCCCCC49
:1048FC002DE9F843264B1B69002B43D0244A013B7E
:10490C0013619478002C41D105461346126A17693D
:10491C005E6907EB86089B887BB9936898550023E2
:10492C0027F826301A4B1A6A526901465869904783
:10493C00174A53690133536125E037F82630CBB160
:10494C00D36813F80690936803F80690104B1A6A14
:10495C005269494658699047A9450FD00C4B9A8823
:10496C0027F826200022A8F802201A6AD2685B6970
:10497C00D554DDE7936813F80690EDE7002327F88C
:10498C002630D5E701242046BDE8F8830024FAE759
:10499C0064070020C908044B33F81120034B03EBC8
:1049AC0040004280704700BF786B0008FC07002075
:1049BC00704700002C4A00231370537053649364A7
:1049CC0005E0294A02EB43020021518001331F2BE1
:1049DC00F7DD002310E0072A19D0012101FA03F0BA
:1049EC00214A117801431170D800FF2101FA00F01F
:1049FC00516C014351640133032B10DC1B4A1A44E4
:104A0C0092F88020032AE6D0072AF4D1E3E70122AA
:104A1C0002FA03F1144842780A434270DDE7124B64
:104A2C001B7803B9704700B585B0114B0193114B3E
:104A3C00009302AB03AA20214FF48050FFF7F6FD40
:104A4C000A4B9B796BB9002309E0039A511C039123
:104A5C0000211170029A501C0290117001331F2B0F
:104A6C00F3DD05B05DF804FBFC070020EC0C002026
:104A7C00BD490008A149000838B5274B1B78002B0D
:104A8C0049D0264B1B78002B45D0234B1B7A13F0B7
:104A9C00010F02D0214A546C00E0002413F0020FE5
:104AAC0002D01E4B9B6C1C4301F00AFB002300E060
:104ABC0001331F2B09DC194A02EB43025288824254
:104ACC00F6D901229A401443F2E7002509E0EB00E5
:104ADC0024FA03F0C0B2FF2199409840FFF784FDFF
:104AEC000135032D17DC0D4B1B782B4113F0010FF7
:104AFC00F6D00A4B5B782B4113F0010FE7D0E8009E
:104B0C0024FA00F3DB43DBB2FF21814003FA00F00F
:104B1C00FFF76AFDE4E738BDEC0C0020FC07002031
:104B2C0070B400210C461F2306E00E4A02EB430230
:104B3C00558851802946013B002B0CDB01229A4001
:104B4C000242F8D0002CF0D1064A02EB4302518805
:104B5C001E460124EFE71CB1024B03EB46067180A5
:104B6C0070BC7047FC07002070B400210C460B464B
:104B7C0006E00E4A02EB4302558851802946013368
:104B8C001F2B0CDC01229A400242F8D0002CF0D1F1
:104B9C00064A02EB430251881E460124EFE71CB182
:104BAC00024B03EB4606718070BC7047FC0700207B
:104BBC0010B507287DD8DFE800F004081A292B422D
:104BCC0059750846FFF7ACFF10BD0846FFF7CCFF40
:104BDC00FAE701331F2BF7DC01229A400A42F8D086
:104BEC00664A02EB43024FF47A705080F1E70023DF
:104BFC00F0E701331F2BE7DC01229A400A42F8D080
:104C0C005E4A02EB430200205080F2E70023F1E7FA
:104C1C005A4B5A6C0A435A649A6C22EA01029A64FF
:104C2C00002300E001331F2BCEDC01229A400A4204
:104C3C00F8D0524A02EB430200205080F2E74F4B6F
:104C4C009A6C0A439A645A6C22EA01025A64002351
:104C5C0000E001331F2BB7DC01229A400A42F8D046
:104C6C00464A02EB430200205080F2E7C943434B13
:104C7C00586C084058649A6C0A409A64A4E73F4AFE
:104C8C0002EB43020020508001331F2B0CDC01226D
:104C9C009A400A42F3D0394A02EB43024FF47A703D
:104CAC005080F1E70023F0E7344B00225A649A64F9
:104CBC008AE710F0800F87D010F0010F0FD100237E
:104CCC0010E001331F2B19DC01229A400A42F8D064
:104CDC002A4A02EB43024FF47A745480F1E7002322
:104CEC00F0E701331F2B09DC01229A400A42F8D06D
:104CFC00224A02EB430200245480F2E710F0020F28
:104D0C0017D01E4B5A6C0A435A649A6C22EA010261
:104D1C009A64002300E001331F2B3FF755AF0122AB
:104D2C009A400A42F7D0154A02EB43020020508009
:104D3C00F1E710F0040F17D0104B9A6C0A439A64E9
:104D4C005A6C22EA01025A64002300E001331F2B43
:104D5C003FF73AAF01229A400A42F7D0074A02EBDA
:104D6C00430200205080F1E7C943044B5A6C0A40BF
:104D7C005A649A6C1140996426E700BFFC07002026
:104D8C00054B00221A70C9089B68044A32F811209E
:104D9C0023F81020704700BF48080020786B0008EB
:104DAC0070470000224BB3F8802040F60B439A4228
:104DBC0000D0704710B584B001231D4A13711D4CEF
:104DCC00237000236370802001F076FDA06020B179
:104DDC00174B9B794BBB002309E0154B01229A71B1
:104DEC00F6E7144A9268002122F8131001333F2B86
:104DFC00F7DD114B0193114B009302AB03AA402139
:104E0C004FF40050FFF712FC094B9B796BB9002350
:104E1C0009E0039A511C039100211170029A501C55
:104E2C000290117001333F2BF3DD04B010BD00BFB5
:104E3C00EC0C002048080020AD4D00088D4D0008FA
:104E4C00234B1B7903B9704710B501F033F9214B93
:104E5C005B6883420FD01F4A506053780133DBB23A
:104E6C005370072B31D9002454704FF6FF71204634
:104E7C00FFF7BAFB10BD174B5B7801249C4001F087
:104E8C001FF9134B1B7A13F0010F1AD0114B1B781F
:104E9C00CBB1B0F5FA7FE8D244F47F44E5E70133B7
:104EAC00072BE2DC0B4A9168527803EBC20231F813
:104EBC0012208242F3D903F1080101228A401443E3
:104ECC00EDE70023ECE70023EAE70024CDE700BF81
:104EDC00EC0C002048080020034BDB68034A52F816
:104EEC00212043F82020704754080020B86B00089C
:104EFC00074B83FB0023A3EBE07202EB4203C31AC4
:104F0C0001330448C06803EB8203C154704700BFEF
:104F1C005655555554080020014B01229A70704784
:104F2C0054080020014B01225A707047540800208D
:104F3C001A4B1B78A3B1194B5B788BB1184B1B78B0
:104F4C0033B9184B1B68DB6D13B9154B01221A7062
:104F5C00134B1B78012B04D0114B1B78022B0AD05E
:104F6C0070470F4B9B78002BF6D00D4B00229A709C
:104F7C0002221A70F0E70A4B5B78002BF0D0084A3B
:104F8C00002353701370074B1968902088651968BB
:104F9C009268CA651B6891229A65E1E7EC0C0020C7
:104FAC00540800205C01002070B505460E46002414
:104FBC0005E015F8011B2046FFF78EFF0134B442C3
:104FCC00F7DB70BD70B505460E46002405E015F8FC
:104FDC00011B2046FFF78CFF0134B442F7DB70BD98
:104FEC00F0B585B0994AD2F88831C2F8843103F112
:104FFC006001C2F888111C78621ED2B2FD2A00D959
:10500C000324934AFF211170012190484170002024
:10501C0050709070D1705D780DB94FF480751A781E
:10502C00032A37D004FB05F1894B5960DB78002B40
:10503C0037D0884B0193884B009302AB03AA002016
:10504C00FFF7F4FA814B9B797BB9814BDB78002B12
:10505C0031D07F4A53689B00053393607C4EB06817
:10506C0001F02AFCF06000282AD0784B9B79002BA9
:10507C0040F0C380764BDA6800211160DE68321D87
:10508C00DA60DB785BB3724B5B6802F82310039A2F
:10509C0002982BE05B79A52BC4D16D4B0022DA7002
:1050AC00C0E76C4B01936D4B009302AB03AA00203D
:1050BC00FFF7BCFAC6E76B1D9B00654A9360CDE712
:1050CC00624B01229A71D0E7614AD2684FF0FF31EE
:1050DC0042F8231001332A1D9A42F5DCD7E700234E
:1050EC00F9E7002302F8013B00F8013B584B5968E3
:1050FC00039B0B449342F4D80127002300E00133B7
:10510C00A34208DA514AD2F884211A449278FF2A31
:10511C00F5D00027F3E7002217E0DFF830C1DCF808
:10512C00841104FB0230194491F802E0039901F850
:10513C0000E0DCF88411194491F802C0029901F8DE
:10514C0000C00133A342E8DB0132AA420EDA5FB1A0
:10515C0092FBF4F304FB132304FB0233802103982A
:10516C00C1540298C154EFE70023EBE7384BDB78CE
:10517C00002B44D0364B59680398FFF715FF384B7A
:10518C0019684A6822F070424A6019684A6842F00D
:10519C0030424A601B684FF000421A612B4B0122CF
:1051AC009A831A6A22F001021A622E4A11684B691C
:1051BC0043F001034B611268D36943F48043D3611C
:1051CC00234BDB78002B3AD0274B1B684FF45572DE
:1051DC001A60254B1A68022151601A680C32234B55
:1051EC0019680A661A6856661968194A9068C8657B
:1051FC001B68912199650023137005B0F0BD144B09
:10520C0059680398FFF7DEFE154A11684B6823F0C6
:10521C00704323F470034B6011684B6843F03043C8
:10522C0043F430034B6013684FF020421A61074B74
:10523C0005229A831A6A22F005021A62B5E70A4B14
:10524C001B6840F247321A60C3E700BFEC0C002029
:10525C0054080020254F0008E54E0008FD4E0008BC
:10526C007C01002074010020600100205C01002002
:10527C00034A1346002103F8101B9360D360704758
:10528C0064080020124B9B6801B30133114A93420E
:10529C0001D3A2F580630E4AD2689A4217D030B47B
:1052AC0003E00B4AD2689A420ED0094A94680578FA
:1052BC00257093600139013031B10133054A9342B5
:1052CC00EFD3A2F58063ECE730BC704770477047B2
:1052DC0064080020740C002082B003681A0202F4E7
:1052EC007F0242EA1362180A00F47F40024342EA4A
:1052FC00036202AB43F8042D002204E01878087016
:10530C00013201330131032AF8D902B0704700236E
:10531C00934209D210B404780C700133013101307E
:10532C009342F8D310BC70477047000070B594B02E
:10533C00B44BDA689B689A4200F0C183511CB14BA4
:10534C00D96010788DF84F0003F58263994204D32D
:10535C00A3F5826303F11002DA60AA4B1B78072BCA
:10536C0000F2A283DFE813F008002A006001830139
:10537C001A03300352038003F02810D0FF2817D0F3
:10538C002028D5D19F4C2046FF2300F8043F0DF177
:10539C004F02012100F006FE01232370C8E7994B50
:1053AC0004221A7001210DF14F0000F0DDFDBFE762
:1053BC0001210DF14F0000F0D7FDB9E7914B002210
:1053CC00DA701B280DD9402800F0108114A8FF2397
:1053DC0000F8013D012100F0C7FD8A4B00221A7034
:1053EC00A6E79870884A125C01325A700DF14F0290
:1053FC000121181D00F0D6FD20238DF80C309DF8EE
:10540C004F308DF80D301B2B00F2E580DFE813F0E8
:10541C001C00330049005E007B007B007B007B009E
:10542C007F007B00E3007B007B0033007B00E3000C
:10543C00E300E3009B007B007B007B007B007B0098
:10544C00E3009F00CD007B00704B18680DF10E013E
:10545C000830FFF741FF6B4B02221A7014A8FF2390
:10546C0000F83E3D03AA062100F09CFD072103A88D
:10547C0000F07AFD5CE704220DF10E016448FFF7A1
:10548C0046FF604B02221A7014A8FF2300F83E3D21
:10549C0003AA062100F086FD072103A800F064FD95
:1054AC0046E70DF10E015B48FFF716FF554B022244
:1054BC001A7014A8FF2300F83E3D03AA062100F041
:1054CC0071FD072103A800F04FFD31E74F4B186821
:1054DC008368B3F1FF3F03D14A4B03221A7027E7CD
:1054EC00484B02221A700DF10E010830FFF7F4FE42
:1054FC0003AA06210DF1120000F054FD072103A8A8
:10550C0000F032FD14E73F4B03221A7010E772B61D
:10551C00414B9A6A029200229A6262B60DF10E0118
:10552C0002A8FFF7D9FE374B02221A7014A8FF23EA
:10553C0000F83E3D03AA062100F034FD072103A824
:10554C0000F012FDF4E62F4B05221A70F0E6334CF6
:10555C0008220DF10E012046FFF7D9FE294B02223D
:10556C001A7014A8FF2300F83A3D03AA0A2100F090
:10557C0019FD0B2103A800F0F7FC0021234604F1D0
:10558C00080206E010781C782043187001310132B3
:10559C00013307293FF6CCAE1F4840790028F1D0E3
:1055AC0010781C7820401870F0E740220DF10E01A5
:1055BC001B48FFF7ACFE134B02221A7014A8FF23F2
:1055CC0000F8023D03AA422100F0ECFC432103A8A1
:1055DC0000F0CAFCACE614A8FF2300F8013D012141
:1055EC0000F0C2FC074B00221A70A1E60D4C0DF125
:1055FC004F020121204600F0D5FC062304F8043CA0
:10560C0096E600BF64080020B86F00081C0100205B
:10561C006C0D0020E00C0020EC0C0020F60C00209F
:10562C00280D002068080020B04AD3780133DBB283
:10563C00D370527893420BD3AC4B1B7998420ED05B
:10564C00AB4AD36A0133D362A84B00221A706FE6BF
:10565C000DF14F020121A74800F0A4FC68E6A44A12
:10566C00936B83F004139363A34A1360ECE79F4A94
:10567C00D1784B1CDBB2D370114481F810045278F2
:10568C00934214D39A4A936B83F0041393639A4A0C
:10569C001360964B1A799DF84F309A420ED0944A6B
:1056AC00D36A0133D362914B00221A7040E60DF19C
:1056BC004F0201218F4800F075FC39E68B4B9B782B
:1056CC00033B182B00F26281DFE813F01900320063
:1056DC0037004000520060016B0060017D009200B9
:1056EC006001D5006001600160016001EC00000107
:1056FC003C016001500160016001600158017B4A6E
:10570C0092F8133492F8121443EA012392F811140C
:10571C0043EA014392F8102443EA0263744840F8C8
:10572C00343F764B19680422083100F0D5FBBAE7F8
:10573C00734B1B68734ADA60B5E74FF00053724A3B
:10574C001A606F4B1B686F4ADA60ACE7684BD3F892
:10575C007C1100236D4A04E010780870013301318C
:10576C0001322F2BF8D94FF6FF70FEF7E5FC9AE7C4
:10577C0072B65F48B0F91A305C4991F8124491F84E
:10578C00132442EA042212B223EA020391F81044D1
:10579C0091F8112442EA042212B21343438362B6F5
:1057AC0081E7534BD3F880110023584A1F2B05D89F
:1057BC0010780870013301310132F7E74FF0FF30F8
:1057CC00FEF70EFD6FE74A4CFF2384F87C3004F1A2
:1057DC007C0504F18002FC21284600F0E3FB4FF429
:1057EC0080724B49284600F077FB012323705AE75F
:1057FC003F4900230A4602F88C3BC1F888214B62D2
:10580C00C1F8803103E00021117001330132EF2B1C
:10581C00F9D93F4800F026FB354B5B6BB3F1FF3FEA
:10582C0006D0364B1968042208313A4800F054FB74
:10583C002F4B1B6BB3F1FF3F3FF435AF2F4B196868
:10584C0004220C31344800F047FB2CE70133032BC6
:10585C0013D8264A1A4492F81014254A1A4482F88E
:10586C0080100029F2D0012202FA01F12048426A8C
:10587C000A434262EAE70023E9E7FEF7DBFC012476
:10588C0001E0984701340C2C3FF60DAF184B5A6AC7
:10589C000123A3401A42F5D0204B53F82430002B9F
:1058AC00EFD1EFE7114A92F8111492F812341B045D
:1058BC0043EA016392F8131443EA012392F8141497
:1058CC00194392F81004FFF773F9ECE6074B93F8C1
:1058DC0010240F2A3FF6E7AE054BD3F87C3102EBD0
:1058EC004202134400220E4921E000BF640800204C
:1058FC00EC0C002068080020100C01401C0100205A
:10590C00680100200400FA05EFBEADDE740C002027
:10591C0000FC0008200D00201C0D0020240100209C
:10592C00750C002008781870013201330131022AFD
:10593C00F8D96A4B93F810340120984080B2FEF7E6
:10594C00FBFBB0E6654B93F810241F2A3FF6ABAE79
:10595C00634BD3F88011614B93F81104885493F87E
:10596C00103401209840FEF73BFC9CE65B4B93F80F
:10597C00111493F81004FEF785FB94E6574B93F83B
:10598C00111493F81004FEF7C3FB8CE614A8FF2344
:10599C0000F8013D012100F0E7FA84E6FF2805D06C
:1059AC0001210DF14F0000F0DFFAC1E420238DF846
:1059BC000C30FF238DF80D30022103A800F0D4FA2F
:1059CC00464B00221A70B3E4454BD3F88411434A7A
:1059DC00D378C854D3780133DBB2D3705278934266
:1059EC000DD33E4B1A799DF84F309A4203D03C4A66
:1059FC00D36A0133D362394B00221A7098E40DF14B
:105A0C004F020121374800F0CDFA91E4354C0DF1ED
:105A1C004F020121204600F0C5FA201F14F8012C7A
:105A2C00531CDBB204F8013C10449DF84F2080F865
:105A3C001024062B7FF47CAC043C94F8100494F8EE
:105A4C00113494F8125494F8131494F8146494F8D0
:105A5C00152442EA062241EA052143EA0020FEF71A
:105A6C0021FF0723237063E4FEF742FF68B11B4B51
:105A7C001A799DF84F309A420ED0194AD36A0133E5
:105A8C00D362164B00221A7052E40DF14F02012121
:105A9C00144800F087FA4BE4114A936B83F004131B
:105AAC009363114A1360ECE714A8FF2300F8013D3F
:105ABC00012100F059FA094B00221A7038E40DF15B
:105ACC00020101A800F064FABDF8021009B914B083
:105ADC0070BD019800F0E2FCF9E700BF64080020FB
:105AEC00EC0C002068080020100C014082B00E4B1A
