:020000040800F2
:1000000000500020615800088D5300088F530008ED
:100010009153000893530008955300080000000016
:1000200000000000000000000000000097530008DE
:1000300099530008000000009B5300089D530008DE
:10004000A9580008A9580008A9580008A95800088C
:10005000A9580008A9580008A9580008A95800087C
:10006000A9580008A9580008A9580008A95800086C
:10007000A9580008A9580008A9580008A95800085C
:10008000A9580008A9580008A9580008A95800084C
:10009000A5530008A9580008A9580008A958000845
:1000A000A9580008A9580008A9580008A95800082C
:1000B000A9580008A9580008A9580008A95800081C
:1000C000A9580008A9580008A9580008A95800080C
:1000D000A9580008A9580008A9580008A9580008FC
:1000E000A9580008A9580008A958000800000000F5
:1000F0000000000000000000000000000000000000
:0C01000000000000000000005FF808F1A3
:10010C0010B5054C237833B9044B13B10448AFF345
:10011C0000800123237010BD580200200000000055
:10012C00E859000808B5034B1BB103490348AFF36A
:10013C00008008BD000000005C020020E8590008A7
:10014C0010B504460E4B18784FF47A73B3FBF0F3EA
:10015C000C4A1068B0FBF3F000F08EF868B90F2C65
:10016C0001D901200AE0002221464FF0FF3000F0B7
:10017C0041F8034B5C60002000E0012010BD00BF83
:10018C00000000209001002008B5074A136843F0D6
:10019C0010031360032000F01BF80020FFF7D0FFC2
:1001AC0005F0CCF8002008BD00200240034A11687D
:1001BC00034B1B780B441360704700BFA80400204E
:1001CC0000000020014B1868704700BFA8040020F5
:1001DC00074AD36823F4E0631B041B0C000200F4F1
:1001EC00E060184340F0BF6040F40030D0607047CE
:1001FC0000ED00E030B4174BDB68C3F30223C3F10E
:10020C000704042C28BF04241D1D062D18D9033BFC
:10021C004FF0FF3505FA04F421EA0401994005FA80
:10022C0003F322EA0303194300280BDB0901C9B2CB
:10023C0000F1604000F5614080F8001330BC70475D
:10024C000023E5E700F00F000901C9B2024B195475
:10025C00F4E700BF00ED00E014ED00E0002807DB40
:10026C0000F01F02400901239340024A42F820305B
:10027C00704700BF00E100E00138B0F1807F0AD286
:10028C00064B5860064AF02182F823100020986033
:10029C0007221A6070470120704700BF10E000E091
:1002AC0000ED00E0F0B482B000263246A2E0002D52
:1002BC005AD0012D00D1CE68FF2B69D88446FF2B74
:1002CC0069D89500DCF800400F27AF4024EA0704FA
:1002DC0006FA05F52C43CCF800404C6814F0805F0E
:1002EC0000F087805F4CA56945F00105A561A46904
:1002FC0004F001040194019C9508AF1C5A4C54F86D
:10030C00274002F00307BF004FF00F0C0CFA07FC5C
:10031C0024EA0C0C554CA04243D004F58064A04256
:10032C0000F0818004F58064A0427ED004F58064E6
:10033C00A04234D0042435E04D4FBD4214D00BD92B
:10034C004C4FBD4210D007F58037BD420CD0A7F5FD
:10035C008017BD42B0D107E0A7F58017BD4203D08E
:10036C0007F58037BD42A7D18D687DB1012D08D02E
:10037C0044610826A0E7CE6808369DE7CE680C36A7
:10038C009AE70461082697E7002695E7042693E789
:10039C0000F1040C93E7A2F10805AD0092E70324E9
:1003AC0000E00024BC4044EA0C0402352E4F47F810
:1003BC0025404C6814F4803F39D02F4D2C681C43D9
:1003CC002C604C6814F4003F37D02B4D6C681C43E8
:1003DC006C604C6814F4801F35D0274DAC681C43FE
:1003EC00AC604C6814F4001F33D0234DEC682343ED
:1003FC00EB6001320B6833FA02F430D001249440E4
:10040C0023409C42F5D14D68122DB7D094D8022DC3
:10041C00B1D07FF64CAF032DB6D0112D7FF44CAF7D
:10042C00CE68043648E70124BCE70224BAE7124D33
:10043C002C6824EA03042C60C3E70F4D6C6824EA93
:10044C0003046C60C5E70C4DAC6824EA0304AC6093
:10045C00C7E7094DEC6824EA0303EB60C9E702B077
:10046C00F0BC704700100240000001400008014041
:10047C00000021100000311000040140F0B587B0DD
:10048C00002873D0044690F82932D3B1032384F8A2
:10049C002932206800F0DBFF254655F8107B6E46AC
:1004AC000FCD0FC62B683360231D0ECB384600F0E2
:1004BC00BFFF58B1022384F829320125284607B022
:1004CC00F0BD80F8283205F027F8DFE7002120681E
:1004DC0000F0C7FF002311E004EB4312012182F866
:1004EC00291082F82830D386002182F82B109163D2
:1004FC00D1639A1C5201A1500133DBB26068834274
:10050C00EAD3002312E004EB4311002281F82921E5
:10051C0081F8283181F82B21C1F83821C1F83C2110
:10052C0003F10A01490162500133DBB29842EAD867
:10053C00254655F8107B6E460FCD0FC62B683360E1
:10054C00231D0ECB384600F08EFF054620B102234A
:10055C0084F829320125B1E7002384F824300123E3
:10056C0084F82932206801F0B0FAA7E70125A5E745
:10057C0090F82832012B10D010B50446012180F8D8
:10058C00281205F0D4F8206801F09DFA206800F0DC
:10059C0056FF002084F8280210BD0220704790F806
:1005AC002832012B0DD010B50446012380F82832D7
:1005BC0080F82410006801F080FA002084F82802EA
:1005CC0010BD0220704770B511F0800F23D101F0DF
:1005DC0007056D0105F5947404440544002685F85F
:1005EC00296101F0070121702261E370627802B188
:1005FC00E181022B1AD090F82832012B19D0054634
:10060C00012380F828322146006800F042FF0020C8
:10061C0085F8280270BD01F007056D0105F128046D
:10062C0004440544012685F82960DAE70023237188
:10063C00E1E70220EEE710B511F0800F1CD101F0BC
:10064C0007035B0103F5947202440344002483F80E
:10065C00294101F00703137090F82832012B16D0B2
:10066C000446012380F828321146006801F0C5F8D1
:10067C00002084F8280210BD01F007035B0103F190
:10068C00280202440344012483F82940E1E70220B4
:10069C00F1E770B501F007056C0104F594710144A4
:1006AC000444C4F83C2105F10A0252018618835017
:1006BC000023736084F8293184F8285125B100682F
:1006CC0001F01FFA002070BD006801F01AFAF9E77A
:1006DC0001F007010A3100EB41114868704770B511
:1006EC0001F007056C0104F1280101440444E263A4
:1006FC00AA1C52018618835000237360012384F8CE
:10070C00293084F8285025B1006801F0FAF900204E
:10071C0070BD006801F0F5F9F9E7F8B504462068FA
:10072C00B0F8443013F4004F00F0AD81B0F8443011
:10073C009BB213F00F0540F0CD8013F0100F58D082
:10074C0003889BB213F4006F40F0898013F4004FC0
:10075C00E5D0038823F070031B051B0D43F08003C9
:10076C0003802068B0F8503094F8282103EBC203C2
:10077C00063300EB4303B3F80034C3F30903C4F8A6
:10078C0044318BB1D4F83C1171B1B4F82E2101F085
:10079C0048FBD4F84421D4F83C311344C4F83C3120
:1007AC000021204604F0E0FE2368B3F850201344E7
:1007BC00D4F83821002A74D1B3F80C2492B222F464
:1007CC00F84292B2A3F80C24B3F80C2442F4004281
:1007DC00A3F80C24226813889BB223F4804323F0E3
:1007EC00700383F4405343F4004343F080031380BD
:1007FC0095E703889BB223F4E14323F070036FEA7F
:10080C0043436FEA53439BB203802268B2F85030E3
:10081C0094F8281003EBC103023302EB4303B3F843
:10082C000034C3F309036364E26B1344E3630021F4
:10083C00204604F0A3FE94F82430002B3FF46FAF55
:10084C00236C002B7FF46BAF94F82430226843F0B8
:10085C008003A2F84C30002384F824305FE7B0F812
:10086C00503094F8282103EBC203063300EB43030A
:10087C00B3F80034C3F30903C4F84431B4F82E219F
:10088C0004F50C7101F0CDFA2268138823F0700383
:10089C001B051B0D43F080031380204604F05CFE07
:1008AC003DE73E2A09D8510812F0010F00D0013162
:1008BC00890289B2A3F80C148CE7510912F01F0FAE
:1008CC0000D101396FEAC1626FEA524292B2A3F8C9
:1008DC000C247FE730F82560B6B216F4004F33D104
:1008EC0016F0800F3FF41BAF226832F825309BB214
:1008FC0023F4E14323F070036FEA43436FEA53435D
:10090C009BB222F825302268B2F8503004EB451027
:10091C0090F8281003EBC103023302EB4303B3F846
:10092C000024C2F30902AB1C5B01E1184A60C16BE5
:10093C000A44C263E358002B40F09D8090F82810C5
:10094C00204604F01BFEEAE630F8253023F0700355
:10095C001B051B0D43F0800320F8253004EB4513D9
:10096C0093F83431D3B92068B0F8503004EB451209
:10097C0092F8282103EBC203063300EB4303B3F8D0
:10098C000074C7F309078FB304EB45113B46B1F86C
:10099C002E21D1F83C1101F044FA27E0206804EB39
:1009AC00451393F8282130F8223013F4804F43D0AC
:1009BC00B0F8503003EBC203023300EB4303B3F83F
:1009CC000074C7F309076FBB226804EB451393F857
:1009DC00281132F821309BB223F4E04323F070034A
:1009EC0043F4004343F0C00322F8213005F10A031D
:1009FC005B01E1184A683A444A6004EB4511D1F8AE
:100A0C003C213A44C1F83C21E3581BB1D1F83811D0
:100A1C008F4228D204EB451393F82811204604F09A
:100A2C00A3FD5DE704EB45113B46B1F83021D1F84D
:100A3C003C1101F0F6F9C7E7B0F8503003EBC203F4
:100A4C00063300EB4303B3F80074C7F30907002F18
:100A5C00BAD004EB45113B46B1F83221D1F83C1128
:100A6C0001F0DFF9B0E704EB451191F828112046AD
:100A7C00FFF70FFE34E704EB451595F828102046D8
:100A8C00FFF72DFE4BE60020F8BD10B504460068BC
:100A9C0001F01DF810F4004F45D1206801F017F853
:100AAC0010F4806F43D1206801F011F810F4804FDE
:100ABC0008D02268B2F844309BB223F480439BB236
:100ACC00A2F84430206801F002F810F4005F08D05E
:100ADC002268B2F844309BB223F400539BB2A2F8C4
:100AEC004430206800F0F3FF10F4805F30D12068B0
:100AFC0000F0EDFF10F4006F49D1206800F0E7FF23
:100B0C0010F4007F6DD1206800F0E1FF10F4807FBD
:100B1C0008D02268B2F844309BB223F480739BB2A5
:100B2C00A2F8443010BD2046FFF7F7FDB5E7226868
:100B3C00B2F844309BB223F480639BB2A2F84430E9
:100B4C00204604F02AFD00212046FFF728FDAAE7E5
:100B5C002268B2F840309BB223F004039BB2A2F897
:100B6C0040302268B2F840309BB223F008039BB2AD
:100B7C00A2F84030204604F031FD2268B2F844302F
:100B8C009BB223F480539BB2A2F84430AFE72268A7
:100B9C00B2F8403043F00803A2F840302268B2F8B3
:100BAC0044309BB223F400639BB2A2F84430226819
:100BBC00B2F8403043F00403A2F84030206800F053
:100BCC0086FF10F4805F08D02268B2F844309BB2E4
:100BDC0023F480539BB2A2F84430204604F0EEFC80
:100BEC008BE72268B2F844309BB223F400739BB2BB
:100BFC00A2F84430204604F0CAFC84E738B501F072
:100C0C00070543689D422CD811F0800F1AD14B0177
:100C1C0003F5947101440344002283F82921012334
:100C2C008B700D7090F82832012B1CD004460123D8
:100C3C0080F82832006800F0CAFE65B1002084F804
:100C4C0028020FE06B0103F1280101440344012247
:100C5C0083F82920E3E704F50C71206800F03AFFD3
:100C6C00ECE7012038BD0220FCE701F00F024368DD
:100C7C009A422DD810B511F0800F1ED101F0070348
:100C8C005B0103F5947202440344002483F8294168
:100C9C000023937001F00703137090F82832012B96
:100CAC0018D00446012380F828321146006800F061
:100CBC00B3FE002084F8280210BD01F007035B018D
:100CCC0003F1280202440344012483F82940DFE79E
:100CDC00012070470220EFE711F0800F0CD001F0DB
:100CEC0007014901283101445AB101220A730B81D1
:100CFC001B0C4B8100207047490101F59471014494
:100D0C00F2E70A73CB80F5E782B0084B1B68084A00
:100D1C00A2FB03235B0A00FB03F0019000BF019BC5
:100D2C005A1E0192002BF9D102B07047900100209D
:100D3C00D34D6210002800F0F58170B582B00446E6
:100D4C00036813F0010F2CD0AB4B5B6803F00C0362
:100D5C00042B1DD0A84B5B6803F00C03082B12D09E
:100D6C006368B3F5803F41D0002B55D103F180432C
:100D7C0003F504331A6822F480321A601A6822F4DC
:100D8C0080221A6037E09C4B5B6813F4803FE7D0FD
:100D9C00994B1B6813F4003F03D06368002B00F0E1
:100DAC00C381236813F0020F76D0934B5B6813F06A
:100DBC000C0F5FD0904B5B6803F00C03082B54D0E6
:100DCC002369002B00F08A808C4B01221A60FFF7FC
:100DDC00F9F90546884B1B6813F0020F75D1FFF724
:100DEC00F1F9401B0228F5D90320A0E1824A1368CF
:100DFC0043F480331360636843B3FFF7E3F90546AC
:100E0C007D4B1B6813F4003FCBD1FFF7DBF9401B84
:100E1C006428F5D903208AE1B3F5A02F09D0764BCD
:100E2C001A6822F480321A601A6822F480221A603E
:100E3C00E1E703F18043A3F53C331A6842F48022C6
:100E4C001A601A6842F480321A60D4E7FFF7BAF9D4
:100E5C000546694B1B6813F4003FA2D0FFF7B2F9AB
:100E6C00401B6428F5D9032061E1634B5B6813F4E4
:100E7C00803FA5D1604B1B6813F0020F04D023698F
:100E8C00012B01D0012052E15B4A136823F0F803D7
:100E9C00616943EAC1031360236813F0080F32D071
:100EAC00A369002B5BD0564B01221A60FFF78AF91D
:100EBC000546514B5B6A13F0020F21D1FFF782F903
:100ECC00401B0228F5D9032031E14B4A136823F06B
:100EDC00F803616943EAC1031360DDE7474B002265
:100EEC001A60FFF76FF90546434B1B6813F0020FAE
:100EFC00D2D0FFF767F9401B0228F5D9032016E181
:100F0C000120FFF701FF236813F0040F00F0988015
:100F1C00394BDB6913F0805F33D1374BDA6942F020
:100F2C008052DA61DB6903F080530193019B012548
:100F3C00344B1B6813F4807F25D0E368012B36D02B
:100F4C00002B4CD103F1804303F504331A6A22F0D1
:100F5C0001021A621A6A22F004021A622CE0284B6F
:100F6C0000221A60FFF72EF90546234B5B6A13F03B
:100F7C00020FC8D0FFF726F9401B0228F5D9032031
:100F8C00D5E00025D4E71F4A136843F4807313603F
:100F9C00FFF718F906461B4B1B6813F4807FCCD166
:100FAC00FFF710F9801B6428F5D90320BFE0124A23
:100FBC00136A43F001031362E3687BB3FFF702F992
:100FCC0006460D4B1B6A13F0020F38D1FFF7FAF8E7
:100FDC00801B41F288339842F3D90320A7E0052BFC
:100FEC0012D0054B1A6A22F001021A621A6A22F018
:100FFC0004021A62E0E700BF001002400000424207
:10100C0080044242007000404C4B1A6A42F00402C9
:10101C001A621A6A42F001021A62CDE7FFF7D2F89F
:10102C000646464B1B6A13F0020F08D0FFF7CAF8AE
:10103C00801B41F288339842F3D9032077E0E5B95D
:10104C00E369002B72D03D4A526802F00C02082A68
:10105C0056D0022B17D03A4B00221A60FFF7B2F889
:10106C000446364B1B6813F0007F47D0FFF7AAF8F5
:10107C00001B0228F5D9032059E0304AD36923F02C
:10108C008053D361DCE72E4B00221A60FFF79AF8ED
:10109C0005462A4B1B6813F0007F06D0FFF792F829
:1010AC00401B0228F5D9032041E0236AB3F5803FA9
:1010BC001AD022494B6823F47413226A606A0243E3
:1010CC0013434B601E4B01221A60FFF77BF804465A
:1010DC001A4B1B6813F0007F0ED1FFF773F8001B3F
:1010EC000228F5D9032022E0144A536823F4003374
:1010FC00A1680B435360DCE7002018E0002016E0E9
:10110C00012B16D00D4B5B6803F48031226A91429F
:10111C0001D001200BE003F47013626A93420AD0F1
:10112C00012004E001207047012000E0002002B003
:10113C0070BD0120FBE70020F9E700BF0010024062
:10114C006000424210B487B0164C94E80F000DF1C9
:10115C00180C0CE90F00238AADF80430124B5B68B5
:10116C0003F00C02082A1AD1C3F38342624412F82A
:10117C00102C13F4803F05D10C4800FB02F007B093
:10118C0010BC7047084B5B68C3F34043634413F8CF
:10119C00143C074800FB02F0B0FBF3F0EFE7044807
:1011AC00EDE700BF005A00080010024000093D00A6
:1011BC0000127A00002800F0A38070B50446524B50
:1011CC001B6803F007038B420CD24F4A136823F0C1
:1011DC0007030B431360136803F007038B4201D022
:1011EC00012070BD236813F0020F17D013F0040F09
:1011FC0004D0464A536843F4E0635360236813F009
:10120C00080F04D0414A536843F4605353603F4A7B
:10121C00536823F0F003A068034353600D46236822
:10122C0013F0010F31D06368012B20D0022B25D095
:10123C00364A126812F0020F64D034494A6822F020
:10124C00030213434B60FEF7BDFF06462F4B5B6852
:10125C0003F00C036268B3EB820F16D0FEF7B2FFFB
:10126C00801B41F288339842F0D90320B9E7274A12
:10127C00126812F4003FE0D10120B2E7234A126851
:10128C0012F0007FD9D10120ABE71F4B1B6803F094
:10129C000703AB420CD91C4A136823F007032B43FA
:1012AC001360136803F00703AB4201D0012098E7E9
:1012BC00236813F0040F06D0144A536823F4E06338
:1012CC00E1680B435360236813F0080F07D00F4AF3
:1012DC00536823F46053216943EAC1035360FFF759
:1012EC0031FF0A4B5B68C3F30313094AD35CD84044
:1012FC00084B1860084B1868FEF722FF002070E7B7
:10130C000120704701206CE70020024000100240D1
:10131C0018610008900100200400002070B582B014
:10132C000446036813F0010F34D03E4BDB6913F015
:10133C00805F48D13B4BDA6942F08052DA61DB695D
:10134C0003F080530193019B0125374B1B6813F469
:10135C00807F3AD0334B1B6A13F4407311D0626810
:10136C0002F440729A420CD02E4A136A23F4407055
:10137C002E4901260E6000260E60106213F0010F3C
:10138C0037D1284A136A23F4407361680B43136204
:10139C00002D3FD1236813F0020F06D0214A536869
:1013AC0023F44043A1680B435360236813F0100FE0
:1013BC0035D01C4A536823F48003E1680B43536017
:1013CC00002002B070BD0025BFE7174A136843F434
:1013DC0080731360FEF7F6FE0646134B1B6813F47E
:1013EC00807FB7D1FEF7EEFE801B6428F5D9032071
:1013FC00E7E7FEF7E7FE06460A4B1B6A13F0020FFF
:10140C00BFD1FEF7DFFE801B41F288339842F3D93F
:10141C000320D6E7D36923F08053D361BAE70020C9
:10142C00CFE700BF00100240007000404004424271
:10143C0084B001A880E80E00002004B07047B0F81A
:10144C00403043F43F43A0F8403000207047B0F8E0
:10145C00403023F47C535B045B0CA0F8403000203C
:10146C0070470020704784B038B505AC84E80E0096
:10147C000123A0F840300024A0F84040A0F84440DC
:10148C00A0F85040FFF7DBFF2046BDE8384004B021
:10149C00704730B403460C7830F8242092B222F412
:1014AC00EC4222F0700292B2C87803285AD8DFE8D6
:1014BC0000F04D550251002048F280052A4323F8D4
:1014CC0024200C7833F8242092B222F4E04222F04B
:1014DC00700222432A4323F824200A7B002A40F07E
:1014EC00B1804A78002A4ED0B3F850201A440C78B8
:1014FC0002EB0412CC8864086400A2F800440C7857
:10150C0033F8242012F0400F0CD033F8242092B280
:10151C0022F4E04222F0700242F4004242F0C00297
:10152C0023F82420CA78012A1ED0097833F8212008
:10153C0092B222F4E04222F0400282F0200242F405
:10154C00004242F0800223F8212060E042F4007255
:10155C000020B1E742F4C0620020ADE742F48062A3
:10156C000020A9E70120A7E7097833F8212092B2DF
:10157C0022F4E04222F0400242F4004242F08002A7
:10158C0023F8212043E0B3F850201A440C7802EBE6
:10159C000412CC8864086400A2F80844B3F8502004
:1015AC001A440C7802EB04120C6994BBB2F80C448C
:1015BC00A4B224F4F844A4B2A2F80C44B2F80C443B
:1015CC0044F40044A2F80C440C7833F8242012F4B0
:1015DC00804F0CD033F8242092B222F4E04222F057
:1015EC00700242F4404242F0800223F82420097831
:1015FC0033F8212092B222F4804222F0700282F45D
:10160C00405242F4004242F0800223F8212030BCC8
:10161C0070473E2C09D8650814F0010F00D0013535
:10162C00AD02ADB2A2F80C54CEE7650914F01F0F51
:10163C0000D1013D6FEAC5646FEA5444A4B2A2F82C
:10164C000C44C1E70C7833F8242092B222F4E04227
:10165C0022F0700242F4014242F0800223F824206E
:10166C00B3F850201A440C7802EB04120C8964086D
:10167C006400A2F80044B3F850201A440C7802EB32
:10168C0004124C8964086400A2F808444A78002AC1
:10169C004ED10C7833F8242012F4804F0CD033F850
:1016AC00242092B222F4E04222F0700242F4404232
:1016BC0042F0800223F824200C7833F8242012F016
:1016CC00400F0CD033F8242092B222F4E04222F0E6
:1016DC00700242F4004242F0C00223F824200C783D
:1016EC0033F8242092B222F4E04222F0700242F449
:1016FC00004242F0C00223F824200D7833F8252054
:10170C0092B222F4804222F0700282F4405248F2EB
:10171C008004224323F82520097833F8212092B243
:10172C0022F4E04222F04002224323F821206EE70B
:10173C000C7833F8242012F4804F0CD033F824208A
:10174C0092B222F4E04222F0700242F4404242F0A3
:10175C00800223F824200C7833F8242012F0400F58
:10176C000CD033F8242092B222F4E04222F0700222
:10177C0042F4004242F0C00223F824200C7833F8E3
:10178C00242092B222F4E04222F0700242F4404251
:10179C0042F0800223F82420CA78012A1ED00C784B
:1017AC0033F8242092B222F4E04222F0400282F07C
:1017BC00200242F4004242F0800223F824200978EF
:1017CC0033F8212092B222F4804222F0700242F4CB
:1017DC00004242F0800223F8212018E70C7833F8FD
:1017EC00242092B222F4E04222F0400242F4004261
:1017FC0042F0800223F82420E1E70B7B002B46D13A
:10180C004B7813B30A7830F8223013F0400F0CD019
:10181C0030F822309BB223F4E04323F0700343F4FE
:10182C00004343F0C00320F822300A7830F822300D
:10183C009BB223F4E04323F0400343F4004343F012
:10184C00800320F82230002070470A7830F82230CC
:10185C0013F4804F0CD030F822309BB223F4E043C9
:10186C0023F0700343F4404343F0800320F822300C
:10187C000A7830F822309BB223F4804323F07003B3
:10188C0043F4004343F0800320F82230DBE710B42C
:10189C004B78002B4ED10A7830F8223013F4804F5D
:1018AC000CD030F822309BB223F4E04323F07003C9
:1018BC0043F4404343F0800320F822300A7830F898
:1018CC00223013F0400F0CD030F822309BB223F4AE
:1018DC00E04323F0700343F4004343F0C00320F8CB
:1018EC0022300A7830F822309BB223F4E04323F004
:1018FC00700343F4004343F0C00320F822300B780C
:10190C0030F8232092B222F4804222F0700248F286
:10191C008004224320F823200A7830F822309BB22E
:10192C0023F4E04323F04003234320F8223000202B
:10193C0010BC70470A7830F8223013F4804F0CD06A
:10194C0030F822309BB223F4E04323F0700343F4CD
:10195C00404343F0800320F822300A7830F82230DC
:10196C0013F0400F0CD030F822309BB223F4E0433C
:10197C0023F0700343F4004343F0C00320F82230FB
:10198C000A7830F822309BB223F4E04323F0700342
:10199C0043F4404343F0800320F822300B7830F8B6
:1019AC00232092B222F4E04222F0400248F280045A
:1019BC00224320F823200A7830F822309BB223F4FB
:1019CC00804323F07003234320F82230AFE74B7899
:1019DC008BB90A7830F822309BB223F4804323F081
:1019EC00700383F4805343F4004343F0800320F8E6
:1019FC002230002070470A7830F822309BB223F452
:101A0C00E04323F0400383F0100343F4004343F01E
:101A1C00800320F82230ECE70B7B002B4BD14B786A
:101A2C0033B30A7830F8223013F0400F0CD030F872
:101A3C0022309BB223F4E04323F0700343F40043C1
:101A4C0043F0C00320F82230CB78012B33D00A7836
:101A5C0030F822309BB223F4E04323F0400383F0B0
:101A6C00200343F4004343F0800320F8223022E0AB
:101A7C000A7830F8223013F4804F0CD030F8223032
:101A8C009BB223F4E04323F0700343F4404343F050
:101A9C00800320F822300A7830F822309BB223F4ED
:101AAC00804323F0700383F4405343F4004343F02A
:101ABC00800320F822300020704711B98023A0F851
:101ACC004C30002070470020704700207047B0F861
:101ADC00440070470020704701335B0800EB420262
:101AEC0002F5806263B110B40C78487844EA0024A3
:101AFC0022F8044B0231013B002BF5D110BC70478E
:101B0C00704770B54E78012E33D08A690B699A42B2
:101B1C0040F2FC80D21A8A610A7B002A40F01381C1
:101B2C00B0F8502002440C7802EB0412002B40F069
:101B3C00F180B2F80C349BB223F4F8439BB2A2F8B8
:101B4C000C34B2F80C3443F40043A2F80C340A7889
:101B5C0030F822309BB223F4804323F0700383F4DB
:101B6C00405343F4004343F0800320F8223000201C
:101B7C0070BD8A690B699A4222D9D21A8A610C46C5
:101B8C0005460A7B02B30A7830F8221011F0400F98
:101B9C0072D0002E40D1B0F85010014401EB02126B
:101BAC000BBBB2F80C1489B221F4F84189B2A2F83B
:101BBC000C14B2F80C1441F40041A2F80C1433E0EC
:101BCC0000238B611346DAE79EB23346CA88496913
:101BDC00FFF782FFB5F850302B44227803EB021349
:101BEC00A3F8046437E03E2B09D8590813F0010F11
:101BFC0000D00131890289B2A2F80C1414E0590901
:101C0C0013F01F0F00D101396FEAC1616FEA514126
:101C1C0089B2A2F80C1407E0B0F85010014401EBA3
:101C2C00021299B2A2F80C1462899BB2616928461F
:101C3C00FFF752FF6378002B57D1227835F822300A
:101C4C009BB223F4E04323F0700343F4004343F0CE
:101C5C00C00325F82230227835F822309BB223F4C9
:101C6C00E04323F0400383F0300343F4004343F09C
:101C7C00800325F822307AE76EBBB0F8501001448F
:101C8C0001EB021273B9B2F8041489B221F4F841D1
:101C9C0089B2A2F80414B2F8041441F40041A2F879
:101CAC00041420E03E2B09D8590813F0010F00D082
:101CBC000131890289B2A2F8041414E0590913F015
:101CCC001F0F00D101396FEAC1616FEA514189B22E
:101CDC00A2F8041407E0B0F85010014401EB021212
:101CEC0099B2A2F8041422899FE7012BB3D1227870
:101CFC0035F822309BB223F4E04323F0700343F415
:101D0C00404343F0800325F82230A4E700238B6185
:101D1C00134601E73E2B09D85C0813F0010F00D0E5
:101D2C000134A402A4B2A2F80C4410E75C0913F02D
:101D3C001F0F00D1013C6FEAC4646FEA5444A4B293
:101D4C00A2F80C4403E7A6B9B0F8502002440C7872
:101D5C0002EB041233BBB2F80444A4B224F4F844EA
:101D6C00A4B2A2F80444B2F8044444F40044A2F827
:101D7C0004444A78002A47D1B0F8502002440C7829
:101D8C0002EB04123BBBB2F80C349BB223F4F843C5
:101D9C009BB2A2F80C34B2F80C3443F40043A2F812
:101DAC000C34D4E63E2B09D85C0813F0010F00D09C
:101DBC000134A402A4B2A2F80444DAE75C0913F0DB
:101DCC001F0F00D1013C6FEAC4646FEA5444A4B203
:101DDC00A2F80444CDE73E2B09D85C0813F0010FA0
:101DEC0000D00134A402A4B2A2F80C44AFE65C0902
:101DFC0013F01F0F00D1013C6FEAC4636FEA534329
:101E0C009BB2A2F80C34A2E6012A7FF4A0AEB0F883
:101E1C00502002440C7802EB04129BB2A2F80C3452
:101E2C0095E630B45D0800EB420202F5806207E0F3
:101E3C0032F8044BA4B20C70240A4C700231013DF0
:101E4C00002DF5D113F0010F01D013880B7030BCAD
:101E5C00704710B5D0F8B842D0F8BC325BB194F8EA
:101E6C000002FF2807D09B6894F80122214698476E
:101E7C00FF2384F80032002010BD000043230380B0
:101E8C000048704708000020432303800048704737
:101E9C004C00002043230380004870479000002032
:101EAC000A23038000487047D400002038B504464C
:101EBC00D0F8B85203F030FCC5F80C02D4F8B832A4
:101ECC004BB1D4F8BC32DB6805F50371D5F80402CC
:101EDC009847002038BD0220FCE738B5D0F8B8226E
:101EEC00D0F8C052EAB101EB8104A3000344DB69D2
:101EFC003BB105EB4115AD6BB3FBF5F405FB1433AE
:101F0C001BB10020C2F8140238BD01EB8102930012
:101F1C0003440024DC612346224603F0EDFB2046FB
:101F2C00F2E70220F0E770B582B005460C46D0F817
:101F3C00B86200238DF80730ADF804300B7813F03D
:101F4C00600227D0202A56D1CA883AB9D0F8BC32C0
:101F5C009B6800224878984700204FE013F0800FD0
:101F6C000CD0D0F8BC329B68314660789847E28838
:101F7C003146284600F0AEFD00203FE04B7886F855
:101F8C0000328B7986F80132CA88314600F0B7FDF1
:101F9C00002033E04B780A2B14D00B2B21D01BB133
:101FAC0000F077FA022029E090F89C32032B05D13F
:101FBC00022201A900F08EFD00201FE000F069FA5A
:101FCC0002201BE090F89C32032B06D101220DF16C
:101FDC00070100F07FFD002010E000F05AFA02200B
:101FEC000CE090F89C32032B01D1002006E000F0AD
:101FFC0050FA022002E000F04CFA022002B070BD50
:10200C0038B50446812103F044FB0025E56201212B
:10201C00204603F03EFBC4F86C518221204603F0AD
:10202C0038FB2564D4F8B8324BB1D4F8BC325B68B9
:10203C009847D4F8B80203F079FBC4F8B8520020E2
:10204C0038BD38B50446037CA3BB4FF400730222A1
:10205C00812103F013FB0125E5624FF4007302228A
:10206C002946204603F00AFBC4F86C5108230322CE
:10207C008221204603F002FB012323644FF40770F6
:10208C0003F050FB0546C4F8B80268B3D4F8BC3270
:10209C001B6898470023C5F81432C5F81832237C06
:1020AC00C3B14023D5F804220121204603F02CFBB8
:1020BC00002038BD40230222812103F0DFFA0125E4
:1020CC00E562402302222946204603F0D7FAC4F8E1
:1020DC006C51CBE74FF40073D5F804220121204654
:1020EC0003F012FB0020E4E70120E2E719B1C0F88D
:1020FC00BC120020704702207047D0F8B832C3F8E9
:10210C000812C3F8102200207047D0F8B832C3F878
:10211C00041200207047D0F8B822A2B108B5D2F84A
:10212C0014320BB1012008BD0123C2F81432D2F8CD
:10213C0010320363B2F81032D2F80822812103F076
:10214C00DBFA0020EFE702207047D0F8B8229AB1F2
:10215C0008B5037C3BB14023D2F80422012103F0E3
:10216C00D3FA002008BD4FF40073D2F804220121E9
:10217C0003F0CAFA0020F5E70220704798B108B5C1
:10218C000346D0F8B40210B10020C3F8B40209B170
:10219C00C3F8B0121846012380F89C32027003F089
:1021AC0023FA002008BD0220704719B1C0F8B41200
:1021BC00002070470220704708B503F057FA002042
:1021CC0008BD08B5D0F8B43233B11B68984708B9CC
:1021DC00002008BD0220FCE70220FAE708B5D0F881
:1021EC00B4325B689847002008BD38B5044600F54A
:1021FC002A75284600F039F90123C4F89432B4F852
:10220C00AE32C4F8983294F8A81201F01F03012BD7
:10221C000ED03BB1022B10D001F08001204603F010
:10222C0040FA03E02946204600F0CDFA002038BDE4
:10223C002946204600F0FBFAF8E72946204600F034
:10224C0026FBF3E738B50446A1BB1046D4F894320C
:10225C00032B03D0052B24D0002037E0D4F86031B9
:10226C00D4F8642193420DD99B1AC4F860319A4278
:10227C0006D99AB20146204600F050FC002025E019
:10228C0092B2F7E7D4F8B4321B692BB194F89C22C4
:10229C00032A01D120469847204600F047FC002035
:1022AC0014E00025C4F894522946204603F0F9F9AD
:1022BC0028460BE00A46D0F8B4329B693BB190F843
:1022CC009C12032905D111469847002038BD0220E5
:1022DC00FCE70220FAE710B50446002953D110465A
:1022EC00D4F89432022B0CD0042B00D01BB98021D3
:1022FC00204603F0D6F994F8A032012B3FD00020F1
:10230C004DE0236A626A93421DD8E169B1FBF2F396
:10231C0002FB13132BB98A4203D8D4F89832994292
:10232C001FD3D4F8B432DB682BB194F89C22032A67
:10233C0001D1204698478021204603F0B2F920466F
:10234C0000F0FFFBD7E79A1A226292B201462046B0
:10235C0000F0CDFB00231A461946204603F0D4F9B1
:10236C00C9E700221146204600F0C1FB0021C4F849
:10237C0098120B460A46204603F0C6F9BBE700202C
:10238C0084F8A0020BE00A46D0F8B4325B693BB18A
:10239C0090F89C12032905D111469847002010BDD6
:1023AC000220FCE70220FAE770B504464023002225
:1023BC00114603F063F90125C4F858514026C4F8BE
:1023CC006461334600228021204603F057F9A56151
:1023DC00666284F89C520023C4F894326360C4F89B
:1023EC00A432D4F8B8322BB1D4F8B4325B680021E3
:1023FC0020469847002070BD01740020704790F86B
:10240C009C3280F89D32042380F89C320020704767
:10241C0090F89C32042B01D00020704790F89D322C
:10242C0080F89C32F8E708B590F89C32032B01D069
:10243C00002008BDD0F8B432DB69002BF8D09847E7
:10244C00F6E7002302E00133DBB201300278002A08
:10245C00F9D11846704708B54B88012B00D008BD40
:10246C00C0F8A43200F062FBF9E70B7803704B78EC
:10247C0043708B78CA7803EB022343800B794A793B
:10248C0003EB022383808B79CA7903EB0223C3808D
:10249C00704710B50446802103F003F90021204653
:1024AC0003F0FFF810BD30B583B005460C46002391
:1024BC00ADF806304A88130A013B062B00F2A480C3
:1024CC00DFE803F004182CA2A2869300D0F8B032F7
:1024DC001B680DF10601007C9847BDF806201AB167
:1024EC00E388002B40F09480E388002B00F09A8066
:1024FC0003B030BD037C43B9D0F8B4329B6A0DF104
:10250C000600984702234370E7E7D0F8B432DB6A41
:10251C000DF10600984702234370DEE7D2B2052A7C
:10252C0052D8DFE802F003101D2A3744D0F8B0323D
:10253C005B6823B10DF10601007C9847CDE721467D
:10254C00FFF7A7FFD4E7D0F8B0329B6823B10DF1A9
:10255C000601007C9847C0E72146FFF79AFFC7E7C2
:10256C00D0F8B032DB6823B10DF10601007C98473E
:10257C00B3E72146FFF78DFFBAE7D0F8B0321B69FD
:10258C0023B10DF10601007C9847A6E72146FFF721
:10259C0080FFADE7D0F8B0325B6923B10DF10601D5
:1025AC00007C984799E72146FFF773FFA0E7D0F826
:1025BC00B0329B6923B10DF10601007C98478CE782
:1025CC002146FFF766FF93E72146FFF762FF8FE78F
:1025DC00037C33B9D0F8B4325B6B0DF1060098472D
:1025EC007BE72146FFF755FF82E7037C43B9D0F820
:1025FC00B4321B6B0DF106009847072343706CE750
:10260C002146FFF746FF73E72146FFF742FF6FE7CE
:10261C009A4228BF1A46ADF806200146284600F01B
:10262C0059FA61E7284600F081FA61E738B50446AB
:10263C008B88F3B9CB88E3B94B887F2B19D803F07F
:10264C007F0590F89C32032B0CD080F89E522946C3
:10265C0003F04AF8204600F069FA35B1022384F8F9
:10266C009C3209E0FFF715FF06E0012384F89C3249
:10267C0002E02046FFF70DFF38BD000038B50446D8
:10268C000D468978284B197001290ED890F89C3288
:10269C00022B0ED0032B21D02946FFF7FAFE224B3A
:1026AC0019782046FFF79AFD02E02946FFF7F1FE64
:1026BC0038BD81B14160032380F89C32FFF781FD66
:1026CC00022803D0204600F031FAF1E729462046D3
:1026DC00FFF7DFFEECE700F029FAE9E789B1436880
:1026EC0099421DD0D9B2FFF779FD0F4B1978616073
:1026FC002046FFF766FD02280DD0204600F016FAA2
:10270C00D6E7022380F89C324160FFF767FD204634
:10271C0000F00CFACCE729462046FFF7BAFEC7E7D3
:10272C0000F004FAC4E700BF7402002008B5CB889F
:10273C00012B0BD190F89C329BB1022B09D9032BA6
:10274C000FD10122011D00F0C5F901E0FFF7A1FE38
:10275C0008BD0146002341F8083F012200F0BAF9F8
:10276C00F6E7FFF796FEF3E708B590F89C32013BCD
:10277C00022B12D8CB88022B0CD10123C360D0F8CA
:10278C00A4320BB10323C360022200F10C0100F050
:10279C00A1F908BDFFF77DFEFBE7FFF77AFEF8E72E
:1027AC0008B590F89C32013B022B09D84B88012BC1
:1027BC0000D008BD0023C0F8A43200F0B7F9F8E748
:1027CC00FFF767FEF5E708B50B7803F06003202BE5
:1027DC0005D0402B03D043B1FFF75BFE03E0D0F8EC
:1027EC00B4329B689847002008BD4B78092B1BD846
:1027FC00DFE803F011171A141A08051A0E0BFFF76D
:10280C0052FEF0E7FFF712FFEDE7FFF737FFEAE7BD
:10281C00FFF78CFFE7E7FFF7A7FFE4E7FFF71BFEE7
:10282C00E1E7FFF7BDFFDEE7FFF733FEDBE738B587
:10283C0005460C460B7803F06003202B06D0402B8A
:10284C0004D01BB1FFF725FE002038BD95F89C3253
:10285C00013B022B16D82379012B0ED8D5F8B432B4
:10286C009B68214628469847E388002BECD100282A
:10287C00EAD1284600F05AF9E6E721462846FFF748
:10288C0008FEE1E721462846FFF703FEDCE738B5F2
:10289C0004468A880B7803F06003202B08D0D0B252
:1028AC00402B05D05BB12046FFF7F3FD002005E07F
:1028BC00D4F8B4329B6820469847002038BD202BB2
:1028CC0005D1D4F8B4329B6820469847F6E74B788C
:1028DC00012B32D0002B5ED0032B40F0D88094F823
:1028EC009C32022B06D0032B16D02046FFF7D1FDCD
:1028FC000020E3E708B1802804D12046FFF7C9FD8A
:10290C000020DBE70146204602F0CBFE802120466A
:10291C0002F0C7FE0020D1E74B8823B918B18028FC
:10292C0001D0CB8823B1204600F000F90020C5E788
:10293C000146204602F0B5FEF5E794F89C32022BD6
:10294C0006D0032B16D02046FFF7A3FD0020B5E7D9
:10295C0008B1802804D12046FFF79BFD0020ADE78D
:10296C000146204602F09DFE8021204602F099FE91
:10297C000020A3E74B88002B40F08E8010F07F0FD7
:10298C0004D1204600F0D2F8002097E701462046FB
:10299C0002F08FFEF5E794F89C32022B06D0032B45
:1029AC002AD02046FFF775FD002087E708B1802864
:1029BC0013D112F0800F15D100F07F0000EB8000D6
:1029CC00830003F5A8712144043100250D60022217
:1029DC00204600F07FF8284670E72046FFF759FDA7
:1029EC0000206BE700F07F0000EB8000830003F118
:1029FC00100121440431E8E752B2002A1FDB00F039
:102A0C000F0303EB83039D002544D5F8583123B302
:102A1C00002A27DB00F07F0202EB8202930003F511
:102A2C00A8752544043508B1802825D100232B60D6
:102A3C0002222946204600F04DF800203EE700F027
:102A4C000F0303EB83039D002544AB69002BDFD1FF
:102A5C002046FFF71EFD002030E72046FFF719FD4A
:102A6C0000202BE700F07F0202EB8202930003F1BF
:102A7C00100525440435D6E70146204602F021FE18
:102A8C0010B101232B60D3E700232B60D0E7204645
:102A9C00FFF7FFFC002011E700200FE7C8B170B56D
:102AAC000D4616460446FFF7CCFC01304000308042
:102ABC00287003236B70022307E001345A1CD2B236
:102ACC00E9540233DBB20021A95421780029F4D156
:102ADC0070BD704710B513460222C0F89422C36132
:102AEC0003620A46002102F007FE002010BD08B563
:102AFC0013460A46002102F0FFFD002008BD10B568
:102B0C0013460322C0F89422C0F85C31C0F860313F
:102B1C000A46002102F0F8FD002010BD08B513464E
:102B2C000A46002102F0F0FD002008BD08B5042380
:102B3C00C0F8943200231A46194602F0DDFD00203D
:102B4C0008BD08B50523C0F8943200231A4619466F
:102B5C0002F0DAFD002008BD38B5164AFF2382F8D2
:102B6C007C30022382F8803082F8813082F8823007
:102B7C0082F88330104B4FF0017159608C320F4B3F
:102B8C0003E019781170013201330D498B42F8D3EF
:102B9C000C4A141FFC21204602F022FA0A4D28464A
:102BAC0002F07EF94FF480722946204602F0B2F909
:102BBC0038BD00BFE80C0020D80C0020145A0008C7
:102BCC00345A0008680D002000FC0008AD4B1B783F
:102BDC0003B970472DE9F047AA4C206A02F010F9AE
:102BEC000746636A13F0060F5AD0A74E736843402A
:102BFC00226A03EA020901240025A846B4360AE039
:102C0C003368102B01DC013333603368102B0ED08A
:102C1C000135640004361F2D44DC9A4B1B6A234299
:102C2C00F6D014EA090FEBD000233360F0E7954B94
:102C3C00D3F880315B5D3C4217D093498A682243BC
:102C4C008A60022BE4D172B6DFF838A2DAF82830A9
:102C5C002343CAF8283062B602F04AFA05F11C0385
:102C6C000AEB430AAAF80400D2E748EA04088649AA
:102C7C008A6822EA04028A60012BC9D172B6DFF895
:102C8C0004A2DAF828302343CAF8283062B602F0DE
:102C9C002FFA05F11C030AEB430AAAF80400B7E764
:102CAC004FF00008774B5B6A13F0200F30D0764B57
:102CBC0093F82D2093F82E309A4243D2724B93F80E
:102CCC002D300BBB704991F82C200132D2B281F817
:102CDC002C20072A03D90A46002182F82C106A49B5
:102CEC008A6942F47F028A61664A5279002A00F0AE
:102CFC0089800A4691F82C00C0F11700012101FAD5
:102D0C0000F051690143516101335F4A82F82D3063
:102D1C005C4B5B6A13F0020F40F08280594B5B6A8C
:102D2C0013F0060F0CD072B65648836A56490A69DE
:102D3C0023EA02038C6822401343836262B64F601D
:102D4C00BDE8F087504C002684F82D60E06802F056
:102D5C0057F8000EC1B294F82C304A4A1A44957CAC
:102D6C004D409174DB00143304EB43030933012110
:102D7C00324610E01C78444E96F82F60B44201D8CD
:102D8C0001341C701E78404C94F82F40A64209D098
:102D9C00013249000233072A90DC0D42EAD00024AC
:102DAC001C70F5E710EA010402D0364E76792EB984
:102DBC00002CEDD1334C6479002CE9D1314C647981
:102DCC00B4B1314C94F82C602E4C3444A67A0E439A
:102DDC00A6725C78002CDBD004F00704012606FAFE
:102DEC0004F4284EB6F81AC044EA0C047483CFE7F6
:102DFC00254C94F82C60234C3444A67A26EA010620
:102E0C00A672E6E7204991F82C20C2F117000122A6
:102E1C008240D24302F47F02486902434A6173E75D
:102E2C0002F066F900F00F0040004FF0010A0AFAB8
:102E3C0000FA02F063F9B0F5FA7F01D34FEA4A0ABF
:102E4C00114CE269A3691343A3610E4BD3F87C5177
:102E5C0001264FF0000904F59A741EE001236370FB
:102E6C0002F046F92061E168074A53690B4353614C
:102E7C002FE013F0080F2CD00423637002F038F904
:102E8C00206126E0E80C0020AC0400200023237015
:102E9C0009F10109760018340335B9F10F0F3FF72A
:102EAC003DAF637823BB744A528B324203D16269C3
:102EBC0012EA080F1CD02B7813F00C0FCED013F0A5
:102ECC00040FD6D005236370E1686C4A53690B4339
:102EDC0053612B7813F0020FD8D0674B5B8B3342C6
:102EEC00D4D023EA0603644A538301232370CFE72B
:102EFC00012B1ED0022B73D0032B00F08B80042BE4
:102F0C0000F0A080052BC3D15B4B5B8B334206D109
:102F1C006369002B00F0AC80BB4300F0A9806368B0
:102F2C0013EA0A0FB4D0E168544A53690B43536156
:102F3C00AEE72B7813F0200F09D04F4B5B8B33424D
:102F4C0005D163690BB1BB4301D100236370637876
:102F5C00012B9DD102F0CCF82369C31A6A789A42EE
:102F6C0033DC2B7813F01C0F27D1AB7813F00F0F39
:102F7C001BD0237823B1032363700023A37018E0C4
:102F8C0002236370AB7803F00F03013B5B0001334A
:102F9C003B4A52F82330A36013EA0A0F09D0E168C8
:102FAC00364A53690B43536103E0032363700023D8
:102FBC00A37002F09DF820616AE713F0180FF8D0A7
:102FCC00032363700023A370F3E7636813EA0A0F0B
:102FDC003FF45EAFE168294A53690B43536157E7ED
:102FEC00254B5B8B334205D163690BB1BB4301D1DC
:102FFC0001232370237853B9A36813EA0A0F3FF413
:10300C0047AFE1681D4A53690B43536140E7002306
:10301C0063703DE702F06CF82369C01A6B78834249
:10302C003FF736AFA3781033DBB2A370AA7802F067
:10303C007002934202D30023637029E702F058F820
:10304C00206125E702F054F82369C01AAB785B00C5
:10305C0003F01E0383423FF71BAF0123637002F0A2
:10306C0047F82061E168054A53690B4353610FE748
:10307C00002363700CE700BFE80C0020AC040020B8
:10308C00345A00081F2821D830B401F00F0311F076
:10309C00800F0DD1012585401B4C5A00D018C10062
:1030AC002144D1F848012843C1F8480130BC70478D
:1030BC0001258540144C5A00D018C1002144D1F888
:1030CC00480120EA0500C1F84801EFE720383F2805
:1030DC0018DC0E4B5B6A13F0200F13D049B2002999
:1030EC0009DB01F00F0141F080011430064B03EBBA
:1030FC004000817270471430034B03EB40000023F7
:10310C0083727047704700BFAC040020E80C0020AD
:10311C000F290BD800F01F00054B53F8200001EBD2
:10312C004101CA00034B1344C3F83801704700BF78
:10313C00345A0008AC040020274A1388184002F5C2
:10314C009A72012100233FE05C0004F0180403F0A4
:10315C0003052C43012505FA04F4556925EA0405F9
:10316C0055610133183249000F2B28DC0842F8D086
:10317C0000245470194CD4F87C5103EB43042C5D9F
:10318C0014F0010FE0D05C0004F0180403F0030508
:10319C002C4304F12C06104D05EB860500266E60C1
:1031AC000E4DAD8B0D42DCD1012505FA04F40B4D0F
:1031BC002D6A2542D5D055692C435461D1E770BC9A
:1031CC0070470133183249000F2B03DC0842F8D04A
:1031DC0070B4CDE7704700BFAC040020E80C0020B1
:1031EC00F0B4114BD3F8804110490123002208E0C0
:1031FC000F4E356925EA030535610132043101347E
:10320C005B001F2A0EDC1E460342F6D000250D6023
:10321C0025783F2DF1D8002DEAD1054F3D692E437D
:10322C003E61EAE7F0BC7047E80C00206005002026
:10323C00AC040020AF4BD3F8803133B3704700247B
:10324C005C70881001F0030202EBC0020432012012
:10325C0000FA02F2DA605C614FF0FF325A6001440E
:10326C0018330F29EBDDA44A002313809360D3603D
:10327C00D361A04AD2F88801C2F8800100F1200184
:10328C00C2F888111D461E460FE0F0B585B000212E
:10329C009A4BE6E7D900FF2202FA01F1954C226A1B
:1032AC000A432262012B37D00133032B00F3A58094
:1032BC00904A1A4492F88020022AEBD0012A2DD091
:1032CC00042A5AD00A2A58D0062A74D0082A7FD049
:1032DC00032A05D0072A03D00B2A01D00C2AE3D1EC
:1032EC00D900FF228A401543DEE701320F2ADBDCCE
:1032FC00815C3F29F9D9012404FA02FC7D490F6A4B
:10330C0027EA0C070F62A2F10807BC404F7A3C4336
:10331C004C7245EA0C05E8E70822E7E7DC00F022EE
:10332C00A24015439A000F2101FA02F2724E37881F
:10333C003A433280A1406F4C226A11432162012B27
:10334C0017D00126B0E701320B2A14DC815C3F292F
:10335C00F9D9012404FA02F766490E6A26EA07062F
:10336C000E62A2F10806B4404E7A34434C723D43CF
:10337C00E9E70822E8E7012696E7022B03D05D4A2D
:10338C000221917190E75B4991F883100529F6D1E0
:10339C005949002481F82C4081F82D4045F47F05D3
:1033AC00CC6844F07F44CC60042A7FF47DAF514A52
:1033BC000121517178E71BB14E4A0321917173E7DA
:1033CC004C490A6A42F0EF020A6245F010056BE7BD
:1033DC001BB1484A0321917166E746490A6A42F0DB
:1033EC000E020A62444A118841F00F01118045F027
:1033FC00F1050126C2F8406156E7002413E03E4A6D
:10340C00D268134225D0002301933A4B5B79EBB180
:10341C00022302933A4B03EBC4036946D3F88000B2
:10342C00FCF740FF01341F2C29DC354B03EBC403A4
:10343C00B3F8843000932F4B1A6A0123A3401A422D
:10344C00DDD00023019301230293E3E701230293D0
:10345C00E0E72B42E6D002230393A4F10803072BE9
:10346C0002D901230193D5E7224B5B7AA4F1080220
:10347C00134113F0010FF4D002230193CAE71D4B43
:10348C00186A1D4CE368184301F0BAFCA0600423D1
:10349C000093012301930223039369461948FCF717
:1034AC0001FF3EB1134AD2F88831C2F87C31303377
:1034BC00C2F8883100210FE001330E4AD2F8802186
:1034CC0004F1080002449A4205D91A783F2AF3D82D
:1034DC0000221A70F0E70131032915DC054B0B446F
:1034EC0093F88030012BF6D1024BD3F88031CC000D
:1034FC002344E2E7E80C0020AC040020E0050020A7
:10350C00345A0008000C0140344B5B6A13F0200F56
:10351C003DD0324BD3F880311A7C5AB9304A022153
:10352C0082F82E105B7C4BB92D4B042283F82F2094
:10353C00002210E02A4981F82E20F3E7284A82F86D
:10354C002F30F5E702F11401254B03EB4103002169
:10355C005972997201323F2AF4DD204BD3F87C2149
:10356C00002301E0013303320F2B0DDC117811F035
:10357C00100FF7D0917863F07F0001F11404184913
:10358C0001EB44018872EDE7144B5B795BB10122CE
:10359C00002314490CE0114A1A44FF2191720133A3
:1035AC00072BF8DDF3E70023FAE70133183152005B
:1035BC000F2B09DC0A4800881042F6D0CD68084C65
:1035CC00E0692843E061F0E74FF6FF70FFF7B4FDC8
:1035DC00024B186AFFF704FE05B0F0BDE80C0020A2
:1035EC00AC040020E0050020034B5A6910435861DD
:1035FC009A69114399617047AC04002010B5044CD2
:10360C00A169606901F09AFB00236361A36110BD9D
:10361C00AC040020044A002303E0002111700133A4
:10362C000132972BF9D97047600700202DE9F04142
:10363C000D4617461E4604132E4AC4EBC4018B00DC
:10364C001344DD6293682B4493602B4B9B793BB105
:10365C00294B9B799BB1284B9B7923B3BDE8F08117
:10366C00284602F047F9C4EBC4039A00214B1344DB
:10367C0018630028ECD1204B01229A71E8E7E30093
:10368C001B1B4FEA83081B4B9844D8F830303B6027
:10369C00284602F02FF9C8F834000028DBD1164B6D
:1036AC0001229A71D7E7E3001B1B9A00114F1744B4
:1036BC007B6B3360A80002F01DF9B86378B101266A
:1036CC000D4BDE700B49E3001F1BBA000A4482F855
:1036DC002860069ED663079B1364002307E0064B05
:1036EC0001229A71BAE7002220F8042B0133AB4275
:1036FC00F9DBB3E760070020E80C0020074B9B6860
:10370C00002B08DB1B11054AD3600F2B02DC134680
:10371C001022DA6070470F33F4E700BF6007002017
:10372C00014B01221A707047600700200B4A536A44
:10373C009832934205D21A7852B91C33074A536215
:10374C00F4E7002333B9054B00225A70DA61704755
:10375C000123F7E7014B00229A61704760070020B4
:10376C002DE9F0413C4B9A694FF6FF739A420FD00A
:10377C00394B5B78002B6DD0374B5A6AD7689B69F5
:10378C001F4496681E44146904EB8304002538E03A
:10379C00FFF7CCFFECE707F1010897F800C0771CA6
:1037AC003678B44514D9ACEB060E5FFA8EFE01FBED
:1037BC000EF1B1FBF3F3DBB2B4450ED93344D9B2FD
:1037CC00536998476388013363803E46474609E056
:1037DC00A6EB0C0E5FFA8EFEE9E7F31AD9B2EFE70F
:1037EC000137013604341C4A936901339361D36960
:1037FC000133D361D16893FBF1F201FB123303B9AE
:10380C000125154B98695A6A5368984215DAA5B97F
:10381C002388002BE4D061888B42BCD807F10108C7
:10382C003978771C31700C4B5A6A526998699047F9
:10383C00002323803E464746D4E798420ADB93692F
:10384C009847054B4FF6FF729A615A6A1C325A62BE
:10385C00FFF76CFFBDE8F0816007002008B50F4B47
:10386C001B78B3B10D4BDB789BB10D4B1B786BB157
:10387C000B4B5B7853B90A4B00221A704FF6FF7250
:10388C009A6103F128025A6201225A70044B5B7848
:10389C0003B908BDFFF764FFFBE700BFE80C00208D
:1038AC006007002010B4104B01249C7000249C80F5
:1038BC001961030B032B15D8C3EBC3039C0004F154
:1038CC002803094C23442362C0F30B0060610844B5
:1038DC005B68984206DC0549A1FB0212D208A28063
:1038EC000022A27010BC704760070020CDCCCCCC5D
:1038FC002DE9F843264B1B69002B43D0244A013B8E
:10390C0013619478002C41D105461346126A17694D
:10391C005E6907EB86089B887BB9936898550023F2
:10392C0027F826301A4B1A6A526901465869904793
:10393C00174A53690133536125E037F82630CBB170
:10394C00D36813F80690936803F80690104B1A6A24
:10395C005269494658699047A9450FD00C4B9A8833
:10396C0027F826200022A8F802201A6AD2685B6980
:10397C00D554DDE7936813F80690EDE7002327F89C
:10398C002630D5E701242046BDE8F8830024FAE769
:10399C0060070020C908044B33F81120034B03EBDC
:1039AC0040004280704700BFB45B0008F80700205D
:1039BC00704700002C4A00231370537053649364B7
:1039CC0005E0294A02EB43020021518001331F2BF1
:1039DC00F7DD002310E0072A19D0012101FA03F0CA
:1039EC00214A117801431170D800FF2101FA00F02F
:1039FC00516C014351640133032B10DC1B4A1A44F4
:103A0C0092F88020032AE6D0072AF4D1E3E70122BA
:103A1C0002FA03F1144842780A434270DDE7124B74
:103A2C001B7803B9704700B585B0114B0193114B4E
:103A3C00009302AB03AA20214FF48050FFF7F6FD50
:103A4C000A4B9B796BB9002309E0039A511C039133
:103A5C0000211170029A501C0290117001331F2B1F
:103A6C00F3DD05B05DF804FBF8070020E80C00203E
:103A7C00BD390008A139000838B5274B1B78002B3D
:103A8C0049D0264B1B78002B45D0234B1B7A13F0C7
:103A9C00010F02D0214A546C00E0002413F0020FF5
:103AAC0002D01E4B9B6C1C4301F028FB002300E052
:103ABC0001331F2B09DC194A02EB43025288824264
:103ACC00F6D901229A401443F2E7002509E0EB00F5
:103ADC0024FA03F0C0B2FF2199409840FFF784FD0F
:103AEC000135032D17DC0D4B1B782B4113F0010F07
:103AFC00F6D00A4B5B782B4113F0010FE7D0E800AE
:103B0C0024FA00F3DB43DBB2FF21814003FA00F01F
:103B1C00FFF76AFDE4E738BDE80C0020F807002049
:103B2C0070B400210C461F2306E00E4A02EB430240
:103B3C00558851802946013B002B0CDB01229A4011
:103B4C000242F8D0002CF0D1064A02EB4302518815
:103B5C001E460124EFE71CB1024B03EB46067180B5
:103B6C0070BC7047F807002070B400210C460B465F
:103B7C0006E00E4A02EB4302558851802946013378
:103B8C001F2B0CDC01229A400242F8D0002CF0D101
:103B9C00064A02EB430251881E460124EFE71CB192
:103BAC00024B03EB4606718070BC7047F80700208F
:103BBC0010B507287DD8DFE800F004081A292B423D
:103BCC0059750846FFF7ACFF10BD0846FFF7CCFF50
:103BDC00FAE701331F2BF7DC01229A400A42F8D096
:103BEC00664A02EB43024FF47A705080F1E70023EF
:103BFC00F0E701331F2BE7DC01229A400A42F8D090
:103C0C005E4A02EB430200205080F2E70023F1E70A
:103C1C005A4B5A6C0A435A649A6C22EA01029A640F
:103C2C00002300E001331F2BCEDC01229A400A4214
:103C3C00F8D0524A02EB430200205080F2E74F4B7F
:103C4C009A6C0A439A645A6C22EA01025A64002361
:103C5C0000E001331F2BB7DC01229A400A42F8D056
:103C6C00464A02EB430200205080F2E7C943434B23
:103C7C00586C084058649A6C0A409A64A4E73F4A0E
:103C8C0002EB43020020508001331F2B0CDC01227D
:103C9C009A400A42F3D0394A02EB43024FF47A704D
:103CAC005080F1E70023F0E7344B00225A649A6409
:103CBC008AE710F0800F87D010F0010F0FD100238E
:103CCC0010E001331F2B19DC01229A400A42F8D074
:103CDC002A4A02EB43024FF47A745480F1E7002332
:103CEC00F0E701331F2B09DC01229A400A42F8D07D
:103CFC00224A02EB430200245480F2E710F0020F38
:103D0C0017D01E4B5A6C0A435A649A6C22EA010271
:103D1C009A64002300E001331F2B3FF755AF0122BB
:103D2C009A400A42F7D0154A02EB43020020508019
:103D3C00F1E710F0040F17D0104B9A6C0A439A64F9
:103D4C005A6C22EA01025A64002300E001331F2B53
:103D5C003FF73AAF01229A400A42F7D0074A02EBEA
:103D6C00430200205080F1E7C943044B5A6C0A40CF
:103D7C005A649A6C1140996426E700BFF80700203A
:103D8C00054B00221A70C9089B68044A32F81120AE
:103D9C0023F81020704700BF44080020B45B0008D3
:103DAC0070470000224BB3F8802040F60B439A4238
:103DBC0000D0704710B584B001231D4A13711D4CFF
:103DCC00237000236370802001F094FDA06020B16B
:103DDC00174B9B794BBB002309E0154B01229A71C1
:103DEC00F6E7144A9268002122F8131001333F2B96
:103DFC00F7DD114B0193114B009302AB03AA402149
:103E0C004FF40050FFF712FC094B9B796BB9002360
:103E1C0009E0039A511C039100211170029A501C65
:103E2C000290117001333F2BF3DD04B010BD00BFC5
:103E3C00E80C002044080020AD3D00088D3D000832
:103E4C00234B1B7903B9704710B501F051F9214B85
:103E5C005B6883420FD01F4A506053780133DBB24A
:103E6C005370072B31D9002454704FF6FF71204644
:103E7C00FFF7BAFB10BD174B5B7801249C4001F097
:103E8C003DF9134B1B7A13F0010F1AD0114B1B7811
:103E9C00CBB1B0F5FA7FE8D244F47F44E5E70133C7
:103EAC00072BE2DC0B4A9168527803EBC20231F823
:103EBC0012208242F3D903F1080101228A401443F3
:103ECC00EDE70023ECE70023EAE70024CDE700BF91
:103EDC00E80C002044080020034BDB68034A52F82E
:103EEC00212043F82020704750080020F45B000884
:103EFC00074B83FB0023A3EBE07202EB4203C31AD4
:103F0C0001330448C06803EB8203C154704700BFFF
:103F1C005655555550080020014B01229A70704798
:103F2C0050080020014B01225A70704750080020A5
:103F3C001A4B1B78A3B1194B5B788BB1184B1B78C0
:103F4C0033B9184B1B68DB6D13B9154B01221A7072
:103F5C00134B1B78012B04D0114B1B78022B0AD06E
:103F6C0070470F4B9B78002BF6D00D4B00229A70AC
:103F7C0002221A70F0E70A4B5B78002BF0D0084A4B
:103F8C00002353701370074B1968902088651968CB
:103F9C009268CA651B6891229A65E1E7E80C0020DB
:103FAC00500800205C01002070B505460E46002428
:103FBC0005E015F8011B2046FFF78EFF0134B442D3
:103FCC00F7DB70BD70B505460E46002405E015F80C
:103FDC00011B2046FFF78CFF0134B442F7DB70BDA8
:103FEC00F0B585B0994AD2F88831C2F8843103F122
:103FFC006001C2F888111C78621ED2B2FD2A00D969
:10400C000324934AFF211170012190484170002034
:10401C0050709070D1705D780DB94FF480751A782E
:10402C00032A37D004FB05F1894B5960DB78002B50
:10403C0037D0884B0193884B009302AB03AA002026
:10404C00FFF7F4FA814B9B797BB9814BDB78002B22
:10405C0031D07F4A53689B00053393607C4EB06827
:10406C0001F048FCF06000282AD0784B9B79002B9B
:10407C0040F0C380764BDA6800211160DE68321D97
:10408C00DA60DB785BB3724B5B6802F82310039A3F
:10409C0002982BE05B79A52BC4D16D4B0022DA7012
:1040AC00C0E76C4B01936D4B009302AB03AA00204D
:1040BC00FFF7BCFAC6E76B1D9B00654A9360CDE722
:1040CC00624B01229A71D0E7614AD2684FF0FF31FE
:1040DC0042F8231001332A1D9A42F5DCD7E700235E
:1040EC00F9E7002302F8013B00F8013B584B5968F3
:1040FC00039B0B449342F4D80127002300E00133C7
:10410C00A34208DA514AD2F884211A449278FF2A41
:10411C00F5D00027F3E7002217E0DFF830C1DCF818
:10412C00841104FB0230194491F802E0039901F860
:10413C0000E0DCF88411194491F802C0029901F8EE
:10414C0000C00133A342E8DB0132AA420EDA5FB1B0
:10415C0092FBF4F304FB132304FB0233802103983A
:10416C00C1540298C154EFE70023EBE7384BDB78DE
:10417C00002B44D0364B59680398FFF715FF384B8A
:10418C0019684A6822F070424A6019684A6842F01D
:10419C0030424A601B684FF000421A612B4B0122DF
:1041AC009A831A6A22F001021A622E4A11684B692C
:1041BC0043F001034B611268D36943F48043D3612C
:1041CC00234BDB78002B3AD0274B1B684FF45572EE
:1041DC001A60254B1A68022151601A680C32234B65
:1041EC0019680A661A6856661968194A9068C8658B
:1041FC001B68912199650023137005B0F0BD144B19
:10420C0059680398FFF7DEFE154A11684B6823F0D6
:10421C00704323F470034B6011684B6843F03043D8
:10422C0043F430034B6013684FF020421A61074B84
:10423C0005229A831A6A22F005021A62B5E70A4B24
:10424C001B6840F247321A60C3E700BFE80C00203D
:10425C0050080020253F0008E53E0008FD3E000800
:10426C007801002070010020600100205C0100201A
:10427C00034A1346002103F8101B9360D360704768
:10428C0060080020124B9B6801B30133114A934222
:10429C0001D3A2F580630E4AD2689A4217D030B48B
:1042AC0003E00B4AD2689A420ED0094A946805780A
:1042BC00257093600139013031B10133054A9342C5
:1042CC00EFD3A2F58063ECE730BC704770477047C2
:1042DC0060080020700C002082B003681A0202F4FF
:1042EC007F0242EA1362180A00F47F40024342EA5A
:1042FC00036202AB43F8042D002204E01878087026
:10430C00013201330131032AF8D902B0704700237E
:10431C00934209D210B404780C700133013101308E
:10432C009342F8D310BC70477047000070B594B03E
:10433C00B9E3F02811D0FF2818D0202840F0B3831F
:10434C00B04C2046FF2300F8043F0DF14F02012131
:10435C0000F046FE01232370A5E3AA4B04221A7039
:10436C0001210DF14F0000F01DFE9CE301210DF128
:10437C004F0000F017FE96E3A24B0022DA701B28C8
:10438C000DD9402800F0108114A8FF2300F8013D3E
:10439C00012100F007FE9B4B00221A7083E39870FA
:1043AC00994A125C01325A700DF14F020121181D0D
:1043BC0000F016FE20238DF80C309DF84F308DF850
:1043CC000D301B2B00F2E580DFE813F01C003300EE
:1043DC0049005E007B007B007B007B007F007B0044
:1043EC00E3007B007B0033007B00E300E300E30091
:1043FC009B007B007B007B007B007B00E3009F002D
:10440C00CD007B00814B18680DF10E010830FFF7D1
:10441C0063FF7C4B02221A7014A8FF2300F83E3D68
:10442C0003AA062100F0DCFD072103A800F0BAFD69
:10443C0039E304220DF10E017548FFF768FF714B4B
:10444C0002221A7014A8FF2300F83E3D03AA06218D
:10445C0000F0C6FD072103A800F0A4FD23E30DF135
:10446C000E016C48FFF738FF664B02221A7014A835
:10447C00FF2300F83E3D03AA062100F0B1FD072101
:10448C0003A800F08FFD0EE3604B18688368B3F14E
:10449C00FF3F03D15B4B03221A7004E3594B0222FA
:1044AC001A700DF10E010830FFF716FF03AA062152
:1044BC000DF1120000F094FD072103A800F072FD2D
:1044CC00F1E2504B03221A70EDE272B6524B9A6A2B
:1044DC00029200229A6262B60DF10E0102A8FFF759
:1044EC00FBFE484B02221A7014A8FF2300F83E3D35
:1044FC0003AA062100F074FD072103A800F052FD69
:10450C00D1E2404B05221A70CDE2444C08220DF149
:10451C000E012046FFF7FBFE3A4B02221A7014A83C
:10452C00FF2300F83A3D03AA0A2100F059FD0B21A4
:10453C0003A800F037FD0021234604F1080206E031
:10454C0010781C782043187001310132013307298F
:10455C0000F2A982304840790028F1D010781C78FC
:10456C0020401870F0E740220DF10E012C48FFF7A7
:10457C00CEFE244B02221A7014A8FF2300F8023D31
:10458C0003AA422100F02CFD432103A800F00AFDF0
:10459C0089E214A8FF2300F8013D012100F002FD7F
:1045AC00184B00221A707EE21E4C0DF14F020121B5
:1045BC00204600F015FD062304F8043C73E2114A72
:1045CC00D3780133DBB2D370527893420BD30D4BBB
:1045DC001B7998420ED0104AD36A0133D362094B2F
:1045EC0000221A705FE20DF14F0201210D4800F01C
:1045FC00F7FC58E2084A936B83F0041393630A4A5E
:10460C001360ECE760080020F45F00081C01002038
:10461C00680D0020DC0C0020E80C0020F20C0020BF
:10462C00240D002064080020100C0140C14AD178F0
:10463C004B1CDBB2D370114481F8100452789342B6
:10464C0014D3BD4A936B83F004139363BB4A13607A
:10465C00B84B1A799DF84F309A420ED0B64AD36AAD
:10466C000133D362B34B00221A701CE20DF14F02DE
:10467C000121B34800F0B4FC15E2AE4B9B78033B30
:10468C00182B00F2798101A252F823F0FD460008A4
:10469C002F47000871460008494700086D4700087D
:1046AC00854900089F47000885490008C347000852
:1046BC00ED47000885490008754800088549000841
:1046CC00854900088549000885490008A348000869
:1046DC00CB48000809490008854900083149000801
:1046EC008549000885490008854900087549000876
:1046FC00904A92F8133492F8121443EA012392F878
:10470C00111443EA014392F8102443EA02638A48E5
:10471C0040F8343F8B4B19680422083100F0FAFB47
:10472C00A0E7BFF34F8F8849CA6802F4E062874B59
:10473C001343CB60BFF34F8F00BFFDE77E4BD3F825
:10474C007C110023824A04E0107808700133013197
:10475C0001322F2BF8D94FF6FF70FEF7EDFC81E7F5
:10476C0072B67548B0F91A30724991F8124491F842
:10477C00132442EA042212B223EA020391F81044F1
:10478C0091F8112442EA042212B21343438362B615
:10479C0068E7694BD3F8801100236D4A04E0107868
:1047AC0008700133013101321F2BF8D94FF0FF3063
:1047BC00FEF716FD56E7604CFF2384F87C3004F1BD
:1047CC007C0504F18002FC21284600F009FC4FF422
:1047DC0080726049284600F09DFB0123237041E75D
:1047EC00554900230A4602F88C3BC1F888214B62DC
:1047FC00C1F8803103E00021117001330132EF2B3D
:10480C00F9D9544800F04CFB4B4B5B6BB3F1FF3FB9
:10481C000DD1494B1B6BB3F1FF3F3FF423AF494B19
:10482C00196804220C314C4800F074FB1AE7454B14
:10483C00196804220831494800F06CFBE9E70133A0
:10484C00032B13D83B4A1A4492F810143A4A1A44D0
:10485C0082F880100029F2D0012202FA01F13648C8
:10486C00426A0A434262EAE70023E9E7FEF7E2FC08
:10487C00012401E0984701340C2C3FF6F3AE2E4B8B
:10488C005A6A0123A3401A42F5D0354B53F8243011
:10489C00002BEFD1EFE7274A92F8111492F812345B
:1048AC001B0443EA016392F8131443EA012392F8C0
:1048BC001414194392F81004FFF77AF9D2E61D4B41
:1048CC0093F810240F2A3FF6CDAE1B4BD3F87C3156
:1048DC0002EB420213440022224904E008781870CB
:1048EC00013201330131022AF8D9124B93F81034FA
:1048FC000120984080B2FEF71FFCB3E60D4B93F8F5
:10490C0010241F2A3FF6AEAE0B4BD3F88011094B87
:10491C0093F81104885493F8103401209840FEF752
:10492C005FFC9FE6034B93F8111493F81004FEF709
:10493C00A9FB97E660080020E80C0020100C014051
:10494C00640800201C01002000ED00E00400FA05C2
:10495C00700C002000FC0008180D00201C0D00201D
:10496C0024010020710C00206B4B93F8111493F868
:10497C001004FEF7CDFB75E614A8FF2300F8013DEB
:10498C00012100F00FFB6DE6FF2805D001210DF190
:10499C004F0000F007FB86E020238DF80C30FF233E
:1049AC008DF80D30022103A800F0FCFA5A4B0022BE
:1049BC001A7078E0594BD3F88411574AD378C854FD
:1049CC00D3780133DBB2D370527893420DD3524B70
:1049DC001A799DF84F309A4203D0504AD36A01336A
:1049EC00D3624D4B00221A705DE00DF14F02012194
:1049FC004B4800F0F5FA56E0494C0DF14F020121FD
:104A0C00204600F0EDFA201F14F8012C531CDBB2E9
:104A1C0004F8013C10449DF84F2080F81024062B1C
:104A2C0041D1043C94F8100494F8113494F81254C5
:104A3C0094F8131494F8146494F8152442EA06229A
:104A4C0041EA052143EA0020FEF72CFF07232370DF
:104A5C0029E0FEF74DFF68B12F4B1A799DF84F30C6
:104A6C009A420ED02D4AD36A0133D3622A4B0022CC
:104A7C001A7018E00DF14F020121294800F0B0FA2C
:104A8C0011E0264A936B83F004139363254A136059
:104A9C00ECE714A8FF2300F8013D012100F082FA95
:104AAC001D4B00221A701C4BDA689B689A4225D069
:104ABC00511C194BD96010788DF84F0003F58263A7
:104ACC00994204D3A3F5826303F11002DA60124B0E
:104ADC001B78072BDDD801A252F823F03F430008C6
:104AEC0085430008CB450008394600089549000865
:104AFC00C1490008054A00085F4A00080DF102018F
:104B0C0001A800F063FABDF8021009B914B070BD29
:104B1C00019800F0E1FCF9E760080020E80C0020A7
:104B2C0064080020100C014082B00E4B1B5C13F08B
:104B3C00100F06D113F0200F0FD10B4A12680192FF
:104B4C0002E00A4A12680192019A03F00F030C3337
:104B5C0002EB8303596002B07047054A1268019258
:104B6C00F2E700BF106000088001002088010020DF
:104B7C008401002070470000674B5B7A03B97047D3
:104B8C002DE9F04186B0654B0193654B009304AB66
:104B9C0005AA08214FF44050FEF748FD5E4B9B7967
:104BAC00002B40F0B58000210D460E460C460B46FE
:104BBC0059E0002067E012F0200F00F08680594A7F
:104BCC001268039296B958490E68B26942F0010214
:104BDC00B2610968CA6942F00202CA61534A11689B
:104BEC004A6842F400624A6001210E4641B1039AC0
:104BFC0000211160039A1162039A9161039AD161A9
:104C0C00039A40F2DF179762039A40F2CF77D7628C
:104C1C00039F474AD25C02F00F0C0CF10C0C07EB13
:104C2C008C077860DDF80C80C2F34000063058F831
:104C3C0020704FEAC20C0CF0080E4FF0680C0CFA06
:104C4C000EFC47EA0C0748F82070DDF80CC0DCF8C5
:104C5C002000920002F03C02012707FA02F2024304
:104C6C00CCF820200133072B3DDC2B4A527A1A4119
:104C7C0012F0010FF6D0284AD2F8800103F1080295
:104C8C00805CFF2895D0059AD054049AD054284AB9
:104C9C00D25C12F0100F8ED0264A12680392002CB0
:104CAC00A4D121490C68A26942F00102A2610968F1
:104CBC00CA6942F00102CA611C4A11684A6842F48E
:104CCC0080724A6001210C4690E71B4A12680392DD
:104CDC00002D8BD1144A1168CA6942F00402CA61D2
:104CEC0001210D4682E72CB1124B1A68136843F070
:104CFC00010313602EB10B4B1A68136843F00103C8
:104D0C0013602DB10C4B1A68136843F00103136048
:104D1C0006B0BDE8F08100BFE80C0020814B000814
:104D2C00354B000884010020700100206C0100202C
:104D3C0010600008880100208001002070B400EA97
:104D4C0001044140630303F40053E20002F4E06207
:104D5C001343E20102F400421343A20802F480421E
:104D6C001343200DC2B213434A0702F000521343FF
:104D7C00CA0402F0E0621343CA0502F00042134376
:104D8C008A0302F0804213430D0905F47F0213439A
:104D9C00E20202F47042A60906F47E763243C4F3B2
:104DAC000176324300F440600243C80600F07040C4
:104DBC000243880200F07E700243080B00F440307E
:104DCC00024305F040652A43240904F460440903B6
:104DDC0001F06041214304480360044B1A6003F561
:104DEC008063196070BC704710080140100C0140C2
:104DFC008002024BC0580840704700BF08080140B1
:104E0C0070B506464FF6FF710020FFF7F1FF044620
:104E1C004FF6FF710120FFF7EBFF05464FF6FF71D0
:104E2C000220FFF7E5FFC4F34033EA0A02F01E024A
:104E3C001343E20802F0E0021343E20902F4807229
:104E4C001343AA0102F47E421343A20002F48032FF
:104E5C001343000100F460201843240504F07F6420
:104E6C0020432B0703F0405318432D0505F0404514
:104E7C002843304070BD0000054B1A68054951604D
:104E8C001B68054A5A60054B00221A70704700BF18
:104E9C006801002023016745AB89EFCD1801002084
:104EAC0010B50446194B1B78DBB9194B1B68DB6832
:104EBC0013F0010F26D1164B1A68022111611A68E2
:104ECC0054611B6842221A610023114A1268D2688D
:104EDC0012F0010F08D042F20F72934204DC01333E
:104EEC00F3E7FFF7C9FFE0E742F20F7293420BDCE6
:104EFC00074B1B68DB6813F0140F01D1002002E094
:104F0C00012000E0012010BD0120FCE71801002069
:104F1C0068010020F8B504460D4616461C4B1B785C
:104F2C005BB91C4B1B68DB6813F0010F2AD1194BC2
:104F3C001B6801221A6100211AE0FFF79DFFF0E7C0
:104F4C000133144A1268D26812F0010F03D042F2F6
:104F5C000F729342F4DD42F20F72934214DC0D4B4C
:104F6C001B68DB6813F0140F10D102313D46044668
:104F7C00B14205DAA01CAF1C23882B800023E0E78C
:104F8C00002000E00120F8BD0120FCE70120FAE739
:104F9C001801002068010020014B00221A627047A2
:104FAC00A40C002000228A420CDA30B4064B1C6A96
:104FBC00651C1D6205781D55013201308A42F5DBF6
:104FCC0030BC7047704700BFA40C0020034B03603B
:104FDC001A8C0A8000221A62704700BFA40C0020B1
:104FEC0030B40578002305E0D45C6C40044D2D5D95
:104FFC0001339BB28B42F7DB057030BC704700BFAE
:10500C00186000080E4B00225A609A600521D96086
:10501C000C4B19688B6943F400638B610A4B19685C
:10502C002F208862196840F2E730C86219680120A5
:10503C00086019684A6019688A601B68DA607047F2
:10504C00C80C0020700100208C01002008B5244AF7
:10505C0013685B6A9BB223490B801268126912F0C9
:10506C00010F34D04A6801324A60B3F5617F01D92F
:10507C0000220A801A4B1B6800221A61194AD36855
:10508C000133D360272B1CDD13460022DA60164A4D
:10509C00D379013303F01F03D37113F0070F04D13D
:1050AC001146127A82F002020A7253B90E4A137A2E
:1050BC0083F001031372936B83F0041393630B4A15
:1050CC001360084A936801339360092B00DC08BD18
:1050DC00134600229A60FEF725FFFEF721FBF6E748
:1050EC008C010020C80C0020E80C0020100C0140A2
:1050FC00014B5868704700BFC80C0020014B188842
:10510C00704700BFC80C002084B0134B9A6942F062
:10511C0010029A619A6902F010020092009A9A6940
:10512C0042F020029A619A6902F020020192019ADF
:10513C009A6942F008029A619A6902F00802029296
:10514C00029A9A6942F004029A619B6903F0040383
:10515C000393039B04B070470010024070B594B0E9
:10516C0000240C940D940F941094059406940794B9
:10517C0008940994019402940394049401250A95CB
:10518C004FF480330B930E950226119612934FF425
:10519C00801313930AA8FBF7CDFD0F2305930696F6
:1051AC0007944FF4806308930994294605A8FCF7EB
:1051BC0001F8102301934FF48003049301A8FCF72A
:1051CC00ADF814B070BD0000224A002303E00021AA
:1051DC00117001330132B3F5C67FF8D31D4B042295
:1051EC009A6303F18C02C3F888211B4A1268D168B8
:1051FC00196392685A63174B1B784BBB10B582B07E
:10520C000EE0144A012102F87C1B14498B4204D88D
:10521C001968116004320433F7E70E4B1B78ABB9F5
:10522C0002A8FF2300F8013D0B4C62680432FC21FC
:10523C00FFF7D6FE636819789DF807209142E0D0FD
:10524C00FDF78AFC034B00221A70E6E702B010BD92
:10525C00704700BFE80C00201C010020FFFC000878
:10526C00174B1B7813B110B5002301E070470133C5
:10527C00032B0DDC124A1A4492F88020002AF6D037
:10528C00012101FA02F20E48416A11434162EEE734
:10529C00FDF7D0FF012401E0984701340C2C0CDC05
:1052AC00074B5A6A0123A3401A42F6D0054B03EB75
:1052BC0084039B68002BEFD1EFE7FFF75DFC10BD7B
:1052CC00E80C00201C01002008B5FAF75DFF184A15
:1052DC00536823F0E06343F080635360FFF73EFFB5
:1052EC00FFF712FF00F0A4F8124B4FF001725A6056
:1052FC00FEF790F9FFF768FFFFF7B2FFFEF7FEF934
:10530C00FFF74AFEFEF7B4FFFFF77CFE62B6FFF72D
:10531C009DFEFEF7A3FAFEF70BFEFDF757FCFEF71A
:10532C00ABFBFEF78DFDFFF701F8FEF767F9EEE733
:10533C0000000140D80C00207047000082B00E4BDA
:10534C009A6942F001029A619A6902F00102009294
:10535C00009ADA6942F08052DA61DB6903F080531B
:10536C000193019B054A536823F0E06343F00073FB
:10537C00536002B0704700BF0010024000000140B3
:10538C007047FEE7FEE7FEE7FEE7704770477047A1
:10539C0008B5FAF70BFF08BD08B50248FBF775FB1B
:1053AC0008BD00BFF811002008B503460B4A12686F
:1053BC0042B10A4A106803446A46934206D8074A27
:1053CC00136008BD054A06491160F2E700F068FA5F
:1053DC000C2303604FF0FF30F3E700BF780200208E
:1053EC00681600200F4B1A6842F001021A605968C7
:1053FC000D4A0A405A601A6822F0847222F48032F4
:10540C001A601A6822F480221A605A6822F4FE028A
:10541C005A604FF41F029A60044B4FF000629A607E
:10542C00704700BF001002400000FFF800ED00E0E4
:10543C0008B500220F491048FCF7A0FE70B90F49BF
:10544C000D48FCF7B2FE60B90D490B48FCF74EFE57
:10545C0050B90948FCF7B0FE48B908BDFFF76CFF1E
:10546C00EDE7FFF769FFEFE7FFF766FFF1E7FFF7FF
:10547C0063FFF2E7D8010020740E0020E00000204A
:10548C0094010020002070470020704710B5096877
:10549C00FEF7F8FE044C05492046FCF736FE204684
:1054AC00FCF753FE002010BD740E002038110020B4
:1054BC0010B5064C002206492046FCF71EFE054995
:1054CC002046FCF722FE002010BD00BF740E002009
:1054DC00B811002038110020094BD3F8B832D3F89A
:1054EC0014320BB10120704710B50A460146044C2A
:1054FC002046FCF702FE2046FCF70DFE10BD00BF57
:10550C00740E002018B1022803D00220704700202E
:10551C00704701207047000002680E4B9A4200D081
:10552C00704700B583B003F5DA33DA6942F4000250
:10553C00DA61DB6903F400030193019B002211463D
:10554C001420FAF757FE1420FAF788FE03B05DF822
:10555C0004FB00BF005C004008B500F50C71D0F8EE
:10556C006802FCF742FE08BD08B500EB4113D3F806
:10557C003C21D0F86802FCF765FE08BD08B500EBCD
:10558C004113DA6BD0F86802FCF7A5FE08BD08B52C
:10559C00D0F86802FCF747FF08BD10B504468368D5
:1055AC00022B01D0FFF7C8FE0121D4F86802FCF7EA
:1055BC0023FFD4F86802FCF7F7FE10BD10B50446C3
:1055CC00D0F86802FCF71BFFA36923B1024A1369E8
:1055DC0043F00603136110BD00ED00E008B5D0F8F0
:1055EC006802FCF715FF08BD10B504461D48C0F84D
:1055FC006842C4F8C0021C4B0360082343600223BA
:10560C00836000238361C3610362FAF737FF30BB09
:10561C00182300221146D4F8C002FBF75DFB582377
:10562C0000228021D4F8C002FBF756FBC0230022D5
:10563C008121D4F8C002FBF74FFB4FF48873002292
:10564C000121D4F8C002FBF747FB4FF48073002212
:10565C008221D4F8C002FBF73FFB002010BDFFF7FE
:10566C006BFED5E7F8110020005C004008B5D0F8BF
:10567C00C002FAF77DFFFFF745FF08BD10B51C46C9
:10568C0013462246D0F8C002FAF79DFFFFF73AFF07
:10569C0010BD08B5D0F8C002FAF7CDFFFFF732FF06
:1056AC0008BD08B5D0F8C002FBF7A8FAFFF72AFF2F
:1056BC0008BD08B5D0F8C002FBF7D7FAFFF722FFF8
:1056CC0008BDD0F8C03211F0800F06D101F07F0177
:1056DC0003EB411191F82A01704701F07F0103EBB4
:1056EC00411191F82A00704708B5D0F8C002FAF7BA
:1056FC0056FFFFF707FF08BD08B5D0F8C002FAF750
:10570C00EEFFFFF7FFFE08BD08B5D0F8C002FAF7B0
:10571C00C0FFFFF7F7FE08BD08B5D0F8C002FAF7D6
:10572C00D7FF08BD004870478002002070477047C3
:10573C0012230B8000487047A401002004230B8027
:10574C0000487047B80100200023934216D230B4B1
:10575C000BE0373401F8134000015C0001340025E4
:10576C000D550133DBB2934206D2040F092CF0D84D
:10577C00303401F81340EFE730BC7047704700003D
:10578C0038B50B4B186804331C6804331B68C018FD
:10579C0000D138BD074D082205F11A01FFF7D4FFDF
:1057AC00042205F12A012046FFF7CEFFF1E700BFE6
:1057BC00E8F7FF1FA401002008B51A230B80FFF7A0
:1057CC00DFFF014808BD00BFBC01002008B50A4638
:1057DC0028B105490548FDF761F9034808BD0249A0
:1057EC000248FDF75BF9F8E764140020306100080B
:1057FC0010B5044C0A4621460348FDF74FF92046E4
:10580C0010BD00BF641400204861000808B50A46AA
:10581C0028B105490548FDF741F9034808BD02497F
:10582C000248FDF73BF9F8E7641400205C610008BE
:10583C0008B50A4628B105490548FDF72FF9034874
:10584C0008BD02490248FDF729F9F8E76414002065
:10585C0068610008002103E00B4B5B584350043196
:10586C000A480B4B42189A42F6D30A4A02E000232C
:10587C0042F8043B084B9A42F9D3FFF7B3FD00F012
:10588C0015F8FFF721FD704780610008000000202B
:10589C00580200205802002068160020FEE7000085
:1058AC00014B1868704700BFF401002070B500254B
:1058BC000C4E0D4CA41BA410A54209D100F08EF87F
:1058CC0000250A4E0A4CA41BA410A54205D170BD9C
:1058DC0056F8253098470135EEE756F825309847AD
:1058EC000135F2E7786100087861000878610008FA
:1058FC007C610008024B0146186800F003B800BF39
:10590C00F401002070B5CD1C25F0030508350C2DD5
:10591C0038BF0C25002D064601DBA94203D90C2308
:10592C003360002070BD00F057F8214A14682146FE
:10593C0091B9204C23681BB9304600F03DF820602B
:10594C002946304600F038F8431C24D10C2330464D
:10595C00336000F042F8E4E70B685B1B18D40B2BA8
:10596C000FD90B60CC18CD50304600F036F804F14E
:10597C000B00231D20F00700C31AD3D05A42E2506B
:10598C00D0E74B688C4216BF636013600C46EBE7A4
:10599C000C464968CCE7C41C24F00304A04205D093
:1059AC00211A304600F008F80130CFD02560DBE733
:1059BC00A0040020A404002038B50023054C0546A3
:1059CC0008462360FFF7F0FC431C02D1236803B1A7
:1059DC002B6038BD6416002070477047F8B500BFC7
:1059EC00F8BC08BC9E467047F8B500BFF8BC08BCB4
:0459FC009E4670470C
:105A000002030405060708090A0B0C0D0E0F1010FF
:105A10000102000000000000000000000000000083
:105A20000000000000000000000000000000000076
:105A30000000000001000000010010000140000112
:105A4000012000410102120801022414814408418E
:105A50008110A22221218A602184A2322194256210
:105A600011CA255151C49662918AB2631139DA6A1A
:105A7000512EA9ABA9A4637739B2AE76B996DC757D
:105A8000755BAC77B95BD67BB3BADE7BF9AE7B7B5B
:105A9000BBBAF77E7DEFDD7ED7DBBF7FEFB7BF7F81
:105AA0007DFFFB7F7FFFFD7FFFF7FF7FFFFFFF7F16
:105AB000FFFFFFFF0008014000200000000C014034
:105AC00000100000000C014000200000000C01400C
